{
  "abi": [
    {
      "type": "constructor",
      "inputs": [
        {
          "name": "_adminAddress",
          "type": "address",
          "internalType": "address"
        },
        {
          "name": "_nativeAsset",
          "type": "address",
          "internalType": "address"
        },
        {
          "name": "router",
          "type": "address",
          "internalType": "address"
        }
      ],
      "stateMutability": "nonpayable"
    },
    {
      "type": "fallback",
      "stateMutability": "payable"
    },
    {
      "type": "receive",
      "stateMutability": "payable"
    },
    {
      "type": "function",
      "name": "LIQ",
      "inputs": [],
      "outputs": [
        {
          "name": "",
          "type": "uint8",
          "internalType": "uint8"
        }
      ],
      "stateMutability": "view"
    },
    {
      "type": "function",
      "name": "LTV",
      "inputs": [],
      "outputs": [
        {
          "name": "",
          "type": "uint8",
          "internalType": "uint8"
        }
      ],
      "stateMutability": "view"
    },
    {
      "type": "function",
      "name": "borrow",
      "inputs": [
        {
          "name": "_amount",
          "type": "uint256",
          "internalType": "uint256"
        },
        {
          "name": "_asset",
          "type": "address",
          "internalType": "address"
        }
      ],
      "outputs": [],
      "stateMutability": "nonpayable"
    },
    {
      "type": "function",
      "name": "ccipReceive",
      "inputs": [
        {
          "name": "message",
          "type": "tuple",
          "internalType": "struct Client.Any2EVMMessage",
          "components": [
            {
              "name": "messageId",
              "type": "bytes32",
              "internalType": "bytes32"
            },
            {
              "name": "sourceChainSelector",
              "type": "uint64",
              "internalType": "uint64"
            },
            {
              "name": "sender",
              "type": "bytes",
              "internalType": "bytes"
            },
            {
              "name": "data",
              "type": "bytes",
              "internalType": "bytes"
            },
            {
              "name": "destTokenAmounts",
              "type": "tuple[]",
              "internalType": "struct Client.EVMTokenAmount[]",
              "components": [
                {
                  "name": "token",
                  "type": "address",
                  "internalType": "address"
                },
                {
                  "name": "amount",
                  "type": "uint256",
                  "internalType": "uint256"
                }
              ]
            }
          ]
        }
      ],
      "outputs": [],
      "stateMutability": "nonpayable"
    },
    {
      "type": "function",
      "name": "getAssetDecimalsOnDest",
      "inputs": [
        {
          "name": "_asset",
          "type": "address",
          "internalType": "address"
        }
      ],
      "outputs": [
        {
          "name": "",
          "type": "uint8",
          "internalType": "uint8"
        }
      ],
      "stateMutability": "view"
    },
    {
      "type": "function",
      "name": "getAssetDecimalsOnSource",
      "inputs": [
        {
          "name": "_asset",
          "type": "address",
          "internalType": "address"
        }
      ],
      "outputs": [
        {
          "name": "",
          "type": "uint8",
          "internalType": "uint8"
        }
      ],
      "stateMutability": "view"
    },
    {
      "type": "function",
      "name": "getLatestMessageDetails",
      "inputs": [],
      "outputs": [
        {
          "name": "",
          "type": "bytes32",
          "internalType": "bytes32"
        },
        {
          "name": "",
          "type": "uint64",
          "internalType": "uint64"
        },
        {
          "name": "",
          "type": "address",
          "internalType": "address"
        },
        {
          "name": "",
          "type": "string",
          "internalType": "string"
        }
      ],
      "stateMutability": "view"
    },
    {
      "type": "function",
      "name": "getRouter",
      "inputs": [],
      "outputs": [
        {
          "name": "",
          "type": "address",
          "internalType": "address"
        }
      ],
      "stateMutability": "view"
    },
    {
      "type": "function",
      "name": "getTotalUSDValueOfUserByType",
      "inputs": [
        {
          "name": "_user",
          "type": "address",
          "internalType": "address"
        },
        {
          "name": "_positionType",
          "type": "uint8",
          "internalType": "uint8"
        }
      ],
      "outputs": [
        {
          "name": "",
          "type": "uint256",
          "internalType": "uint256"
        }
      ],
      "stateMutability": "view"
    },
    {
      "type": "function",
      "name": "getUserPositionForAssetByType",
      "inputs": [
        {
          "name": "_asset",
          "type": "address",
          "internalType": "address"
        },
        {
          "name": "_user",
          "type": "address",
          "internalType": "address"
        },
        {
          "name": "_positionType",
          "type": "uint8",
          "internalType": "uint8"
        }
      ],
      "outputs": [
        {
          "name": "",
          "type": "uint256",
          "internalType": "uint256"
        }
      ],
      "stateMutability": "view"
    },
    {
      "type": "function",
      "name": "getUserPositionForAssetByTypeOnDest",
      "inputs": [
        {
          "name": "_asset",
          "type": "address",
          "internalType": "address"
        },
        {
          "name": "_user",
          "type": "address",
          "internalType": "address"
        },
        {
          "name": "_positionType",
          "type": "uint8",
          "internalType": "uint8"
        }
      ],
      "outputs": [
        {
          "name": "",
          "type": "uint256",
          "internalType": "uint256"
        }
      ],
      "stateMutability": "view"
    },
    {
      "type": "function",
      "name": "getUserPositionForAssetByTypeOnSource",
      "inputs": [
        {
          "name": "_asset",
          "type": "address",
          "internalType": "address"
        },
        {
          "name": "_user",
          "type": "address",
          "internalType": "address"
        },
        {
          "name": "_positionType",
          "type": "uint8",
          "internalType": "uint8"
        }
      ],
      "outputs": [
        {
          "name": "",
          "type": "uint256",
          "internalType": "uint256"
        }
      ],
      "stateMutability": "view"
    },
    {
      "type": "function",
      "name": "i_sourceChainID",
      "inputs": [],
      "outputs": [
        {
          "name": "",
          "type": "uint64",
          "internalType": "uint64"
        }
      ],
      "stateMutability": "view"
    },
    {
      "type": "function",
      "name": "isAssetWhitelisted",
      "inputs": [
        {
          "name": "_asset",
          "type": "address",
          "internalType": "address"
        }
      ],
      "outputs": [
        {
          "name": "",
          "type": "bool",
          "internalType": "bool"
        }
      ],
      "stateMutability": "view"
    },
    {
      "type": "function",
      "name": "lend",
      "inputs": [
        {
          "name": "_amount",
          "type": "uint256",
          "internalType": "uint256"
        },
        {
          "name": "_asset",
          "type": "address",
          "internalType": "address"
        }
      ],
      "outputs": [],
      "stateMutability": "payable"
    },
    {
      "type": "function",
      "name": "liquidate",
      "inputs": [
        {
          "name": "_amount",
          "type": "uint256",
          "internalType": "uint256"
        },
        {
          "name": "_debtAsset",
          "type": "address",
          "internalType": "address"
        },
        {
          "name": "_borrower",
          "type": "address",
          "internalType": "address"
        },
        {
          "name": "_collateralToSeize",
          "type": "address",
          "internalType": "address"
        }
      ],
      "outputs": [],
      "stateMutability": "payable"
    },
    {
      "type": "function",
      "name": "listAsset",
      "inputs": [
        {
          "name": "_asset",
          "type": "address",
          "internalType": "address"
        },
        {
          "name": "_decimals",
          "type": "uint8",
          "internalType": "uint8"
        }
      ],
      "outputs": [],
      "stateMutability": "nonpayable"
    },
    {
      "type": "function",
      "name": "owner",
      "inputs": [],
      "outputs": [
        {
          "name": "",
          "type": "address",
          "internalType": "address"
        }
      ],
      "stateMutability": "view"
    },
    {
      "type": "function",
      "name": "renounceOwnership",
      "inputs": [],
      "outputs": [],
      "stateMutability": "nonpayable"
    },
    {
      "type": "function",
      "name": "repay",
      "inputs": [
        {
          "name": "_amount",
          "type": "uint256",
          "internalType": "uint256"
        },
        {
          "name": "_asset",
          "type": "address",
          "internalType": "address"
        }
      ],
      "outputs": [],
      "stateMutability": "payable"
    },
    {
      "type": "function",
      "name": "s_connectedChainID",
      "inputs": [],
      "outputs": [
        {
          "name": "",
          "type": "uint64",
          "internalType": "uint64"
        }
      ],
      "stateMutability": "view"
    },
    {
      "type": "function",
      "name": "s_isConnectedChainSet",
      "inputs": [],
      "outputs": [
        {
          "name": "",
          "type": "bool",
          "internalType": "bool"
        }
      ],
      "stateMutability": "view"
    },
    {
      "type": "function",
      "name": "setAssetToAssetOnConnectedChain",
      "inputs": [
        {
          "name": "_asset",
          "type": "address",
          "internalType": "address"
        },
        {
          "name": "_connectedChainAsset",
          "type": "address",
          "internalType": "address"
        },
        {
          "name": "_assetDecimalsOnConnected",
          "type": "uint8",
          "internalType": "uint8"
        }
      ],
      "outputs": [],
      "stateMutability": "nonpayable"
    },
    {
      "type": "function",
      "name": "setConnectedChainID",
      "inputs": [
        {
          "name": "_chainID",
          "type": "uint64",
          "internalType": "uint64"
        }
      ],
      "outputs": [],
      "stateMutability": "nonpayable"
    },
    {
      "type": "function",
      "name": "setPriceFeed",
      "inputs": [
        {
          "name": "_asset",
          "type": "address",
          "internalType": "address"
        },
        {
          "name": "_feed",
          "type": "address",
          "internalType": "address"
        }
      ],
      "outputs": [],
      "stateMutability": "nonpayable"
    },
    {
      "type": "function",
      "name": "setReceiverOnConnectedChain",
      "inputs": [
        {
          "name": "_receiver",
          "type": "address",
          "internalType": "address"
        }
      ],
      "outputs": [],
      "stateMutability": "nonpayable"
    },
    {
      "type": "function",
      "name": "supportsInterface",
      "inputs": [
        {
          "name": "interfaceId",
          "type": "bytes4",
          "internalType": "bytes4"
        }
      ],
      "outputs": [
        {
          "name": "",
          "type": "bool",
          "internalType": "bool"
        }
      ],
      "stateMutability": "view"
    },
    {
      "type": "function",
      "name": "transferOwnership",
      "inputs": [
        {
          "name": "newOwner",
          "type": "address",
          "internalType": "address"
        }
      ],
      "outputs": [],
      "stateMutability": "nonpayable"
    },
    {
      "type": "function",
      "name": "unlend",
      "inputs": [
        {
          "name": "_amount",
          "type": "uint256",
          "internalType": "uint256"
        },
        {
          "name": "_asset",
          "type": "address",
          "internalType": "address"
        }
      ],
      "outputs": [],
      "stateMutability": "nonpayable"
    },
    {
      "type": "function",
      "name": "unlistAsset",
      "inputs": [
        {
          "name": "_asset",
          "type": "address",
          "internalType": "address"
        }
      ],
      "outputs": [],
      "stateMutability": "nonpayable"
    },
    {
      "type": "event",
      "name": "MessageReceived",
      "inputs": [
        {
          "name": "messageId",
          "type": "bytes32",
          "indexed": true,
          "internalType": "bytes32"
        },
        {
          "name": "sourceChainSelector",
          "type": "uint64",
          "indexed": true,
          "internalType": "uint64"
        },
        {
          "name": "sender",
          "type": "address",
          "indexed": false,
          "internalType": "address"
        },
        {
          "name": "positionType",
          "type": "uint8",
          "indexed": false,
          "internalType": "uint8"
        }
      ],
      "anonymous": false
    },
    {
      "type": "event",
      "name": "MessageSent",
      "inputs": [
        {
          "name": "messageId",
          "type": "bytes32",
          "indexed": true,
          "internalType": "bytes32"
        },
        {
          "name": "destinationChainSelector",
          "type": "uint64",
          "indexed": true,
          "internalType": "uint64"
        },
        {
          "name": "receiver",
          "type": "address",
          "indexed": false,
          "internalType": "address"
        },
        {
          "name": "feeToken",
          "type": "address",
          "indexed": false,
          "internalType": "address"
        },
        {
          "name": "fees",
          "type": "uint256",
          "indexed": false,
          "internalType": "uint256"
        }
      ],
      "anonymous": false
    },
    {
      "type": "event",
      "name": "OwnershipTransferred",
      "inputs": [
        {
          "name": "previousOwner",
          "type": "address",
          "indexed": true,
          "internalType": "address"
        },
        {
          "name": "newOwner",
          "type": "address",
          "indexed": true,
          "internalType": "address"
        }
      ],
      "anonymous": false
    },
    {
      "type": "error",
      "name": "AmountSurpassesLTV",
      "inputs": []
    },
    {
      "type": "error",
      "name": "CollateralExhausted",
      "inputs": []
    },
    {
      "type": "error",
      "name": "ConnectedChainNotSet",
      "inputs": []
    },
    {
      "type": "error",
      "name": "FallbackUnsupported",
      "inputs": []
    },
    {
      "type": "error",
      "name": "InsufficientCollateralRemaining",
      "inputs": []
    },
    {
      "type": "error",
      "name": "InsufficientRepayAmount",
      "inputs": []
    },
    {
      "type": "error",
      "name": "InvalidAddress",
      "inputs": []
    },
    {
      "type": "error",
      "name": "InvalidAmount",
      "inputs": []
    },
    {
      "type": "error",
      "name": "InvalidAssetDecimals",
      "inputs": []
    },
    {
      "type": "error",
      "name": "InvalidAssetPrice",
      "inputs": []
    },
    {
      "type": "error",
      "name": "InvalidOraclePrice",
      "inputs": []
    },
    {
      "type": "error",
      "name": "InvalidPositionType",
      "inputs": []
    },
    {
      "type": "error",
      "name": "InvalidRouter",
      "inputs": [
        {
          "name": "router",
          "type": "address",
          "internalType": "address"
        }
      ]
    },
    {
      "type": "error",
      "name": "NoCollateralFoundForAsset",
      "inputs": []
    },
    {
      "type": "error",
      "name": "NoZeroAmount",
      "inputs": []
    },
    {
      "type": "error",
      "name": "NotConnectedAsset",
      "inputs": []
    },
    {
      "type": "error",
      "name": "NotEnoughBalance",
      "inputs": []
    },
    {
      "type": "error",
      "name": "NotWhitelistedAsset",
      "inputs": []
    },
    {
      "type": "error",
      "name": "OracleCallFailed",
      "inputs": []
    },
    {
      "type": "error",
      "name": "OwnableInvalidOwner",
      "inputs": [
        {
          "name": "owner",
          "type": "address",
          "internalType": "address"
        }
      ]
    },
    {
      "type": "error",
      "name": "OwnableUnauthorizedAccount",
      "inputs": [
        {
          "name": "account",
          "type": "address",
          "internalType": "address"
        }
      ]
    },
    {
      "type": "error",
      "name": "PriceFeedNotSet",
      "inputs": []
    },
    {
      "type": "error",
      "name": "ReceiverAddressNotSet",
      "inputs": []
    },
    {
      "type": "error",
      "name": "ReentrancyGuardReentrantCall",
      "inputs": []
    },
    {
      "type": "error",
      "name": "SafeERC20FailedOperation",
      "inputs": [
        {
          "name": "token",
          "type": "address",
          "internalType": "address"
        }
      ]
    },
    {
      "type": "error",
      "name": "StaleOraclePrice",
      "inputs": []
    },
    {
      "type": "error",
      "name": "TransferFailed",
      "inputs": []
    },
    {
      "type": "error",
      "name": "UserNotLiquidateable",
      "inputs": []
    }
  ],
  "bytecode": {
    "object": "0x60e060405234801561000f575f5ffd5b5060405161388c38038061388c83398101604081905261002e9161018e565b80836001600160a01b03811661005e57604051631e4fbdf760e01b81525f60048201526024015b60405180910390fd5b61006781610124565b50600180556001600160a01b038116610095576040516335fdcccd60e21b81525f6004820152602401610055565b6001600160a01b03908116608052839081166100c45760405163e6c4247b60e01b815260040160405180910390fd5b826001600160a01b0381166100ec5760405163e6c4247b60e01b815260040160405180910390fd5b50506001600160a01b0391821660c052600d80546001600160a01b0319169190921617905550466001600160401b031660a0526101ce565b5f80546001600160a01b038381166001600160a01b0319831681178455604051919092169283917f8be0079c531659141344cd1fd0a4f28419497f9722a3daafe3b4186f6b6457e09190a35050565b80516001600160a01b0381168114610189575f5ffd5b919050565b5f5f5f606084860312156101a0575f5ffd5b6101a984610173565b92506101b760208501610173565b91506101c560408501610173565b90509250925092565b60805160a05160c05161364061024c5f395f8181610835015281816112860152818161148201528181612283015281816125f7015281816126d2015261284801525f8181610323015281816107a501528181610e6401528181611331015281816115420152612b1a01525f818161049e015261104601526136405ff3fe6080604052600436106101d0575f3560e01c80638da5cb5b116100f6578063c65826b711610094578063dcce170e11610063578063dcce170e1461056a578063e4fbf40414610589578063ed5da2a8146105a8578063f2fde38b146105bb576101d7565b8063c65826b7146104ee578063c7f4c1c01461050d578063ce7023251461052c578063d6d13ca41461054b576101d7565b8063acb70815116100d0578063acb708151461047d578063b0f479a114610490578063b16c8886146104c2578063b1884744146104db576101d7565b80638da5cb5b1461040f57806392f4aaa91461043f578063a98a9f451461045e576101d7565b8063545d32cf1161016e578063715018a61161013d578063715018a61461039e57806376e11286146103b257806385572ffb146103d157806388264ace146103f0576101d7565b8063545d32cf146103125780635745d27c14610345578063586d13b31461036457806362965d8e1461038a576101d7565b80631a2e374f116101aa5780631a2e374f1461028357806324e31a4a146102b05780633394e6f4146102cf5780634b3fd148146102f3576101d7565b806301ffc9a7146101f057806305cff50c146102245780630c3118b414610245576101d7565b366101d757005b60405163d2347d9560e01b815260040160405180910390fd5b3480156101fb575f5ffd5b5061020f61020a366004612bb7565b6105da565b60405190151581526020015b60405180910390f35b34801561022f575f5ffd5b5061024361023e366004612bf2565b610610565b005b348015610250575f5ffd5b50600a5461026b90600160a81b90046001600160401b031681565b6040516001600160401b03909116815260200161021b565b34801561028e575f5ffd5b506102a261029d366004612c2e565b610904565b60405190815260200161021b565b3480156102bb575f5ffd5b506102a26102ca366004612c76565b6109e5565b3480156102da575f5ffd5b506102e3610c29565b60405161021b9493929190612cd0565b3480156102fe575f5ffd5b5061024361030d366004612bf2565b610cf0565b34801561031d575f5ffd5b5061026b7f000000000000000000000000000000000000000000000000000000000000000081565b348015610350575f5ffd5b5061024361035f366004612c2e565b610ed7565b34801561036f575f5ffd5b50610378605081565b60405160ff909116815260200161021b565b348015610395575f5ffd5b50610378604b81565b3480156103a9575f5ffd5b50610243610fa0565b3480156103bd575f5ffd5b506102436103cc366004612d12565b610fb3565b3480156103dc575f5ffd5b506102436103eb366004612d3e565b61103b565b3480156103fb575f5ffd5b5061024361040a366004612d74565b61109f565b34801561041a575f5ffd5b505f546001600160a01b03165b6040516001600160a01b03909116815260200161021b565b34801561044a575f5ffd5b50610378610459366004612d74565b6110f8565b348015610469575f5ffd5b50610243610478366004612d74565b61116a565b61024361048b366004612bf2565b6111d7565b34801561049b575f5ffd5b507f0000000000000000000000000000000000000000000000000000000000000000610427565b3480156104cd575f5ffd5b50600a5461020f9060ff1681565b6102436104e9366004612bf2565b6113ce565b3480156104f9575f5ffd5b506102a2610508366004612c2e565b6115b5565b348015610518575f5ffd5b506102a2610527366004612c2e565b6116be565b348015610537575f5ffd5b50610243610546366004612c76565b6117a7565b348015610556575f5ffd5b50610378610565366004612d74565b61181c565b348015610575575f5ffd5b50610243610584366004612db3565b61188e565b348015610594575f5ffd5b5061020f6105a3366004612d74565b6118d0565b6102436105b6366004612dce565b6118dc565b3480156105c6575f5ffd5b506102436105d5366004612d74565b611aba565b5f6001600160e01b031982166385572ffb60e01b148061060a57506001600160e01b031982166301ffc9a760e01b145b92915050565b610618611af4565b80610624600282611b1e565b61064157604051639216d96360e01b815260040160405180910390fd5b816001600160a01b0381166106695760405163e6c4247b60e01b815260040160405180910390fd5b835f036106895760405163e858080360e01b815260040160405180910390fd5b5f6106953360016109e5565b90505f6106a33360026109e5565b90505f5f6106b087611b42565b6001600160a01b0389165f9081526004602052604081205492945090925060ff909116906106df82600a612f15565b6106e9858c612f23565b6106f39190612f3a565b90508086101561071557604051626ba92b60e91b815260040160405180910390fd5b60646107218288612f59565b61072c90604b612f23565b6107369190612f3a565b85111561075657604051632c127ec560e21b815260040160405180910390fd5b335f9081526005602090815260408083206001600160a01b038d1684529091528120805490918c9183919061078c908490612f59565b90915550506040805160c0810182526001600160401b037f0000000000000000000000000000000000000000000000000000000000000000168152336020808301919091526001600160a01b038d81165f908152600783528481205490911683850152845460608401526080830181905260a08301819052925191929161081891849160019101612f6c565b604051602081830303815290604052905061083281611d0f565b507f00000000000000000000000000000000000000000000000000000000000000006001600160a01b03168c6001600160a01b0316036108d8576040515f9033908f908381818185875af1925050503d805f81146108ab576040519150601f19603f3d011682016040523d82523d5f602084013e6108b0565b606091505b50509050806108d2576040516312171d8360e31b815260040160405180910390fd5b506108ec565b6108ec6001600160a01b038d16338f611ffb565b505050505050505050505061090060018055565b5050565b5f836001600160a01b03811661092d5760405163e6c4247b60e01b815260040160405180910390fd5b836001600160a01b0381166109555760405163e6c4247b60e01b815260040160405180910390fd5b8360ff1660010361098c576001600160a01b038086165f908152600560209081526040808320938a168352929052205492506109dc565b8360ff166002036109c3576001600160a01b038086165f908152600660209081526040808320938a168352929052205492506109dc565b6040516387d192c760e01b815260040160405180910390fd5b50509392505050565b5f5f6109f1600261205a565b90505f805b8251811015610c20575f838281518110610a1257610a12612fcf565b602002602001015190505f5f8760ff16600103610a6d5750506001600160a01b038088165f81815260056020908152604080832094861680845294825280832054938352600b82528083209483529390529190912054610ac4565b8760ff16600203610abc5750506001600160a01b038088165f81815260066020908152604080832094861680845294825280832054938352600c82528083209483529390529190912054610ac4565b505050610c18565b80158015610ad0575081155b15610add57505050610c18565b6001600160a01b038381165f9081526009602052604090205416610b0357505050610c18565b5f5f610b0e85611b42565b6001600160a01b0387165f9081526004602052604081205492945090925060ff90911690808615610b5b57610b4483600a612fe3565b610b4e8689612f23565b610b589190612f3a565b91505b8515610bf9576001600160a01b0388165f9081526008602052604081205460ff169084821115610bab57610b8f8583612f59565b610b9a90600a612fe3565b610ba49089612f3a565b9050610bd5565b81851115610bd257610bbd8286612f59565b610bc890600a612fe3565b610ba49089612f23565b50865b610be085600a612fe3565b610bea8883612f23565b610bf49190612f3a565b925050505b610c038183612fee565b610c0d908b612fee565b995050505050505050505b6001016109f6565b50949350505050565b600e54600f54601080545f93849384936060936001600160401b03831692600160401b90046001600160a01b031691908190610c6490613001565b80601f0160208091040260200160405190810160405280929190818152602001828054610c9090613001565b8015610cdb5780601f10610cb257610100808354040283529160200191610cdb565b820191905f5260205f20905b815481529060010190602001808311610cbe57829003601f168201915b50505050509050935093509350935090919293565b610cf8611af4565b80610d04600282611b1e565b610d2157604051639216d96360e01b815260040160405180910390fd5b816001600160a01b038116610d495760405163e6c4247b60e01b815260040160405180910390fd5b835f03610d695760405163e858080360e01b815260040160405180910390fd5b5f610d753360016109e5565b90505f610d833360026109e5565b6001600160a01b0386165f9081526004602052604081205491925060ff9091169080610dae88611b42565b90925090505f610dbf84600a612fe3565b610dc9848c612f23565b610dd39190612f3a565b90506064610de287604b612f23565b610dec9190612f3a565b610df68683612fee565b1115610e1557604051633c8471b760e11b815260040160405180910390fd5b335f9081526006602090815260408083206001600160a01b038d1684529091528120805490918c91839190610e4b908490612fee565b90915550506040805160c0810182526001600160401b037f0000000000000000000000000000000000000000000000000000000000000000168152336020808301919091526001600160a01b038d81165f908152600783528481205490911683850152845460608401526080830181905260a08301819052925191929161081891849160029101612f6c565b610edf612066565b826001600160a01b038116610f075760405163e6c4247b60e01b815260040160405180910390fd5b826001600160a01b038116610f2f5760405163e6c4247b60e01b815260040160405180910390fd5b8260ff165f03610f525760405163e236476560e01b815260040160405180910390fd5b50506001600160a01b039283165f90815260076020908152604080832080546001600160a01b031916959096169490941790945560089093529120805460ff191660ff909216919091179055565b610fa8612066565b610fb15f612092565b565b610fbb612066565b806001600160a01b038116610fe35760405163e6c4247b60e01b815260040160405180910390fd5b82610fef600282611b1e565b61100c57604051639216d96360e01b815260040160405180910390fd5b50506001600160a01b039182165f90815260096020526040902080546001600160a01b03191691909216179055565b336001600160a01b037f0000000000000000000000000000000000000000000000000000000000000000161461108b576040516335fdcccd60e21b81523360048201526024015b60405180910390fd5b61109c61109782613201565b6120e1565b50565b6110a7612066565b806001600160a01b0381166110cf5760405163e6c4247b60e01b815260040160405180910390fd5b50600a80546001600160a01b0390921661010002610100600160a81b0319909216919091179055565b5f81611105600282611b1e565b61112257604051639216d96360e01b815260040160405180910390fd5b826001600160a01b03811661114a5760405163e6c4247b60e01b815260040160405180910390fd5b5050506001600160a01b03165f9081526004602052604090205460ff1690565b611172612066565b806001600160a01b03811661119a5760405163e6c4247b60e01b815260040160405180910390fd5b6111a5600283611b1e565b15610900576111b5600283612449565b50506001600160a01b03165f908152600460205260409020805460ff19169055565b6111df611af4565b806111eb600282611b1e565b61120857604051639216d96360e01b815260040160405180910390fd5b816001600160a01b0381166112305760405163e6c4247b60e01b815260040160405180910390fd5b835f036112505760405163e858080360e01b815260040160405180910390fd5b335f9081526006602090815260408083206001600160a01b03871684529091529020548085116112805784611282565b805b94507f00000000000000000000000000000000000000000000000000000000000000006001600160a01b0316846001600160a01b0316036112cd578434146112c8575f5ffd5b6112e2565b6112e26001600160a01b03851633308861245d565b335f9081526006602090815260408083206001600160a01b03881684529091528120805490918791839190611318908490612f59565b90915550506040805160c0810182526001600160401b037f0000000000000000000000000000000000000000000000000000000000000000168152336020808301919091526001600160a01b038881165f908152600783528481205490911683850152845460608401526080830181905260a0830181905292519192916113a491849160029101612f6c565b60405160208183030381529060405290506113be81611d0f565b5050505050505061090060018055565b6113d6611af4565b806113e2600282611b1e565b6113ff57604051639216d96360e01b815260040160405180910390fd5b816001600160a01b0381166114275760405163e6c4247b60e01b815260040160405180910390fd5b6001600160a01b038084165f9081526007602052604090205484911661146057604051630c974efb60e01b815260040160405180910390fd5b845f036114805760405163e858080360e01b815260040160405180910390fd5b7f00000000000000000000000000000000000000000000000000000000000000006001600160a01b0316846001600160a01b0316036114de578434146114d95760405163162908e360e11b815260040160405180910390fd5b6114f3565b6114f36001600160a01b03851633308861245d565b335f9081526005602090815260408083206001600160a01b03881684529091528120805490918791839190611529908490612fee565b90915550506040805160c0810182526001600160401b037f0000000000000000000000000000000000000000000000000000000000000000168152336020808301919091526001600160a01b038881165f908152600783528481205490911683850152845460608401526080830181905260a0830181905292519192916113a491849160019101612f6c565b5f836115c2600282611b1e565b6115df57604051639216d96360e01b815260040160405180910390fd5b846001600160a01b0381166116075760405163e6c4247b60e01b815260040160405180910390fd5b846001600160a01b03811661162f5760405163e6c4247b60e01b815260040160405180910390fd5b5f1960ff861601611673576001600160a01b038087165f908152600b602090815260408083208b8516845260078352818420549094168352929052205493506116b4565b60011960ff8616016109c3576001600160a01b038087165f908152600c602090815260408083208b8516845260078352818420549094168352929052205493505b5050509392505050565b5f836116cb600282611b1e565b6116e857604051639216d96360e01b815260040160405180910390fd5b846001600160a01b0381166117105760405163e6c4247b60e01b815260040160405180910390fd5b846001600160a01b0381166117385760405163e6c4247b60e01b815260040160405180910390fd5b5f1960ff86160161176f576001600160a01b038087165f908152600560209081526040808320938b168352929052205493506116b4565b60011960ff8616016109c3576001600160a01b038087165f908152600660209081526040808320938b168352929052205493506116b4565b6117af612066565b816001600160a01b0381166117d75760405163e6c4247b60e01b815260040160405180910390fd5b6117e2600284611b1e565b611817576117f1600284612496565b506001600160a01b0383165f908152600460205260409020805460ff191660ff84161790555b505050565b5f81611829600282611b1e565b61184657604051639216d96360e01b815260040160405180910390fd5b826001600160a01b03811661186e5760405163e6c4247b60e01b815260040160405180910390fd5b5050506001600160a01b03165f9081526008602052604090205460ff1690565b611896612066565b600a805460ff196001600160401b03909316600160a81b029290921660ff67ffffffffffffffff60a81b0119909216919091176001179055565b5f61060a600283611b1e565b6118e4611af4565b826118f0600282611b1e565b61190d57604051639216d96360e01b815260040160405180910390fd5b81611919600282611b1e565b61193657604051639216d96360e01b815260040160405180910390fd5b846001600160a01b03811661195e5760405163e6c4247b60e01b815260040160405180910390fd5b846001600160a01b0381166119865760405163e6c4247b60e01b815260040160405180910390fd5b846001600160a01b0381166119ae5760405163e6c4247b60e01b815260040160405180910390fd5b885f036119ce5760405163e858080360e01b815260040160405180910390fd5b5f6119da8860016109e5565b90505f6119e88960026109e5565b6001600160a01b038b165f9081526004602052604081205491925060ff90911690611a128c611b42565b5090505f611a2183600a612fe3565b828f611a2d9190612f23565b611a379190612f3a565b90506064611a46866050612f23565b611a509190612f3a565b841015611a7057604051631d53efc360e31b815260040160405180910390fd5b611a7d8c8e8385876124aa565b611a888e8e336125f5565b611a948c8c8f33612663565b611aa18e8e338488612812565b50505050505050505050611ab460018055565b50505050565b611ac2612066565b6001600160a01b038116611aeb57604051631e4fbdf760e01b81525f6004820152602401611082565b61109c81612092565b600260015403611b1757604051633ee5aeb560e01b815260040160405180910390fd5b6002600155565b6001600160a01b0381165f90815260018301602052604081205415155b9392505050565b6001600160a01b038181165f908152600960205260408120549091829116611b7d57604051637e68a04560e01b815260040160405180910390fd5b6001600160a01b038084165f9081526009602090815260409182902054825163313ce56760e01b8152925193169263313ce5679260048082019392918290030181865afa158015611bd0573d5f5f3e3d5ffd5b505050506040513d601f19601f82011682018060405250810190611bf491906132bd565b6001600160a01b038085165f9081526009602052604090819020548151633fabe5a360e21b815291519394509091169163feaf968c9160048082019260a0929091908290030181865afa925050508015611c6b575060408051601f3d908101601f19168201909252611c68918101906132f1565b60015b611cb7573d808015611c98576040519150601f19603f3d011682016040523d82523d5f602084013e611c9d565b606091505b50604051638390524960e01b815260040160405180910390fd5b42611cc483610e10612fee565b1015611ce357604051631510fe5b60e31b815260040160405180910390fd5b8396505f8713611d055760405162fc7cad60e51b815260040160405180910390fd5b5050505050915091565b600a545f9061010090046001600160a01b0316611d3f576040516313834ca560e01b815260040160405180910390fd5b600a5460ff16611d625760405163459a2bcf60e01b815260040160405180910390fd5b6040805160a081018252600a5461010090046001600160a01b031660c0808301919091528251808303909101815260e0820183528152602080820185905282515f8082529181018452909282019083611ddc565b604080518082019091525f8082526020820152815260200190600190039081611db65790505b5081526020015f6001600160a01b03168152602001611e59604051806040016040528062030d408152602001600115158152506040805182516024820152602092830151151560448083019190915282518083039091018152606490910190915290810180516001600160e01b0316630181dcf160e41b17905290565b9052600d54600a546040516320487ded60e01b81529293505f926001600160a01b03909216916320487ded91611ea591600160a81b9091046001600160401b031690869060040161333f565b602060405180830381865afa158015611ec0573d5f5f3e3d5ffd5b505050506040513d601f19601f82011682018060405250810190611ee4919061341d565b905047811115611f075760405163569d45cf60e11b815260040160405180910390fd5b600d54600a546040516396f4e9f960e01b81526001600160a01b03909216916396f4e9f9918491611f4d91600160a81b90046001600160401b031690879060040161333f565b60206040518083038185885af1158015611f69573d5f5f3e3d5ffd5b50505050506040513d601f19601f82011682018060405250810190611f8e919061341d565b600a546040805161010083046001600160a01b031681525f6020820152908101849052919450600160a81b90046001600160401b03169084907f9fb548811cfe022ba6400d8533a80d63fbc228e596f93603959dc47b1886af549060600160405180910390a35050919050565b6040516001600160a01b0383811660248301526044820183905261181791859182169063a9059cbb906064015b604051602081830303815290604052915060e01b6020820180516001600160e01b038381831617835250505050612912565b60605f611b3b8361297e565b5f546001600160a01b03163314610fb15760405163118cdaa760e01b8152336004820152602401611082565b5f80546001600160a01b038381166001600160a01b0319831681178455604051919092169283917f8be0079c531659141344cd1fd0a4f28419497f9722a3daafe3b4186f6b6457e09190a35050565b5f5f82606001518060200190518101906120fb9190613434565b9150915061211782604001516002611b1e90919063ffffffff16565b61213457604051639216d96360e01b815260040160405180910390fd5b60a08201516001600160a01b03161580159061215e575060a082015161215c90600290611b1e565b155b1561217c57604051639216d96360e01b815260040160405180910390fd5b5f1960ff8216016121bf5760608201516020808401516001600160a01b039081165f908152600b8352604080822081880151909316825291909252902055612361565b60011960ff8216016122035760608201516020808401516001600160a01b039081165f908152600c8352604080822081880151909316825291909252902055612361565b60021960ff82160161236157602080830180516001600160a01b039081165f908152600580855260408083208189018051861685529087528184205486518616855292875281842090518516845286528083208390559351831682526006855283822060a088015190931682529190935290822091909155801561235f577f00000000000000000000000000000000000000000000000000000000000000006001600160a01b031683604001516001600160a01b0316146122e9576122e483608001518285604001516001600160a01b0316611ffb9092919063ffffffff16565b61235f565b5f83608001516001600160a01b0316826040515f6040518083038185875af1925050503d805f8114612336576040519150601f19603f3d011682016040523d82523d5f602084013e61233b565b606091505b505090508061235d576040516312171d8360e31b815260040160405180910390fd5b505b505b8251600e55602080840151600f8054858401516001600160a01b0316600160401b026001600160e01b03199091166001600160401b039093169290921791909117905560408051808201909152600b81526a4e4557204d45535341474560a81b918101919091526010906123d59082613521565b5082602001516001600160401b0316835f01517fc961d0c2c015e6d8acd4258de0fd4daa7a05039ed1c66e0e9c84a5ab1fc4907b856040015180602001905181019061242191906135db565b604080516001600160a01b03909216825260ff861660208301520160405180910390a3505050565b5f611b3b836001600160a01b0384166129d7565b6040516001600160a01b038481166024830152838116604483015260648201839052611ab49186918216906323b872dd90608401612028565b5f611b3b836001600160a01b038416612aba565b5f8083136124cb57604051631d59567b60e11b815260040160405180910390fd5b6001600160a01b038087165f9081526006602090815260408083209389168352929052205480156125225761250183600a612fe3565b61250b8583612f23565b6125159190612f3a565b61251f9083612fee565b91505b6001600160a01b038088165f908152600c60209081526040808320938a168352929052205480156125ca576001600160a01b038088165f9081526007602090815260408083205490931680835260089091529181205460ff169081900361259c57604051631d59567b60e11b815260040160405180910390fd5b6125a781600a612fe3565b6125b18885612f23565b6125bb9190612f3a565b6125c59086612fee565b945050505b828610156125eb5760405163e480bdff60e01b815260040160405180910390fd5b5050505050505050565b7f00000000000000000000000000000000000000000000000000000000000000006001600160a01b0316826001600160a01b03160361264e578234146118175760405163162908e360e11b815260040160405180910390fd5b6118176001600160a01b03831682308661245d565b6001600160a01b038085165f81815260056020908152604080832094881680845294825280832054938352600b82528083209483529390529190912054811580156126ac575080155b156126ca57604051630438a94360e51b815260040160405180910390fd5b8115612794577f00000000000000000000000000000000000000000000000000000000000000006001600160a01b0316856001600160a01b0316146127225761271d6001600160a01b0386168484611ffb565b612794565b5f836001600160a01b0316836040515f6040518083038185875af1925050503d805f811461276b576040519150601f19603f3d011682016040523d82523d5f602084013e612770565b606091505b5050905080612792576040516312171d8360e31b815260040160405180910390fd5b505b6127a085858886612b06565b5050506001600160a01b039283165f8181526005602090815260408083209587168084529582528083208390558383526006825280832094909616808352938152858220829055828252600b8152858220948252938452848120819055908152600c8352838120918152915290812055565b5f81831115612828576128258284612f59565b90505b801561290a575f8361283a8389612f23565b6128449190612f3a565b90507f00000000000000000000000000000000000000000000000000000000000000006001600160a01b0316866001600160a01b031614612898576128936001600160a01b0387168683611ffb565b612908565b5f856001600160a01b0316826040515f6040518083038185875af1925050503d805f81146128e1576040519150601f19603f3d011682016040523d82523d5f602084013e6128e6565b606091505b50509050806125eb576040516312171d8360e31b815260040160405180910390fd5b505b505050505050565b5f5f60205f8451602086015f885af180612931576040513d5f823e3d81fd5b50505f513d91508115612948578060011415612955565b6001600160a01b0384163b155b15611ab457604051635274afe760e01b81526001600160a01b0385166004820152602401611082565b6060815f018054806020026020016040519081016040528092919081815260200182805480156129cb57602002820191905f5260205f20905b8154815260200190600101908083116129b7575b50505050509050919050565b5f8181526001830160205260408120548015612ab1575f6129f9600183612f59565b85549091505f90612a0c90600190612f59565b9050808214612a6b575f865f018281548110612a2a57612a2a612fcf565b905f5260205f200154905080875f018481548110612a4a57612a4a612fcf565b5f918252602080832090910192909255918252600188019052604090208390555b8554869080612a7c57612a7c6135f6565b600190038181905f5260205f20015f90559055856001015f8681526020019081526020015f205f90556001935050505061060a565b5f91505061060a565b5f818152600183016020526040812054612aff57508154600181810184555f84815260208082209093018490558454848252828601909352604090209190915561060a565b505f61060a565b6040805160c0810182526001600160401b037f00000000000000000000000000000000000000000000000000000000000000001681526001600160a01b038085166020808401919091528782165f908152600780835285822054841685870152606085018290528684166080860152888416825282528481205490921660a0840152925191929091612b9d91849160039101612f6c565b604051602081830303815290604052905061290881611d0f565b5f60208284031215612bc7575f5ffd5b81356001600160e01b031981168114611b3b575f5ffd5b6001600160a01b038116811461109c575f5ffd5b5f5f60408385031215612c03575f5ffd5b823591506020830135612c1581612bde565b809150509250929050565b60ff8116811461109c575f5ffd5b5f5f5f60608486031215612c40575f5ffd5b8335612c4b81612bde565b92506020840135612c5b81612bde565b91506040840135612c6b81612c20565b809150509250925092565b5f5f60408385031215612c87575f5ffd5b8235612c9281612bde565b91506020830135612c1581612c20565b5f81518084528060208401602086015e5f602082860101526020601f19601f83011685010191505092915050565b8481526001600160401b03841660208201526001600160a01b03831660408201526080606082018190525f90612d0890830184612ca2565b9695505050505050565b5f5f60408385031215612d23575f5ffd5b8235612d2e81612bde565b91506020830135612c1581612bde565b5f60208284031215612d4e575f5ffd5b81356001600160401b03811115612d63575f5ffd5b820160a08185031215611b3b575f5ffd5b5f60208284031215612d84575f5ffd5b8135611b3b81612bde565b6001600160401b038116811461109c575f5ffd5b8035612dae81612d8f565b919050565b5f60208284031215612dc3575f5ffd5b8135611b3b81612d8f565b5f5f5f5f60808587031215612de1575f5ffd5b843593506020850135612df381612bde565b92506040850135612e0381612bde565b91506060850135612e1381612bde565b939692955090935050565b634e487b7160e01b5f52601160045260245ffd5b6001815b6001841115612e6d57808504811115612e5157612e51612e1e565b6001841615612e5f57908102905b60019390931c928002612e36565b935093915050565b5f82612e835750600161060a565b81612e8f57505f61060a565b8160018114612ea55760028114612eaf57612ecb565b600191505061060a565b60ff841115612ec057612ec0612e1e565b50506001821b61060a565b5060208310610133831016604e8410600b8410161715612eee575081810a61060a565b612efa5f198484612e32565b805f1904821115612f0d57612f0d612e1e565b029392505050565b5f611b3b60ff841683612e75565b808202811582820484141761060a5761060a612e1e565b5f82612f5457634e487b7160e01b5f52601260045260245ffd5b500490565b8181038181111561060a5761060a612e1e565b82516001600160401b031681526020808401516001600160a01b03908116918301919091526040808501518216908301526060808501519083015260808085015182169083015260a093840151169281019290925260ff1660c082015260e00190565b634e487b7160e01b5f52603260045260245ffd5b5f611b3b8383612e75565b8082018082111561060a5761060a612e1e565b600181811c9082168061301557607f821691505b60208210810361303357634e487b7160e01b5f52602260045260245ffd5b50919050565b634e487b7160e01b5f52604160045260245ffd5b604080519081016001600160401b038111828210171561306f5761306f613039565b60405290565b60405160a081016001600160401b038111828210171561306f5761306f613039565b60405160c081016001600160401b038111828210171561306f5761306f613039565b604051601f8201601f191681016001600160401b03811182821017156130e1576130e1613039565b604052919050565b5f82601f8301126130f8575f5ffd5b81356001600160401b0381111561311157613111613039565b613124601f8201601f19166020016130b9565b818152846020838601011115613138575f5ffd5b816020850160208301375f918101602001919091529392505050565b5f82601f830112613163575f5ffd5b81356001600160401b0381111561317c5761317c613039565b61318b60208260051b016130b9565b8082825260208201915060208360061b8601019250858311156131ac575f5ffd5b602085015b838110156131f757604081880312156131c8575f5ffd5b6131d061304d565b81356131db81612bde565b81526020828101358183015290845292909201916040016131b1565b5095945050505050565b5f60a08236031215613211575f5ffd5b613219613075565b8235815261322960208401612da3565b602082015260408301356001600160401b03811115613246575f5ffd5b613252368286016130e9565b60408301525060608301356001600160401b03811115613270575f5ffd5b61327c368286016130e9565b60608301525060808301356001600160401b0381111561329a575f5ffd5b6132a636828601613154565b60808301525092915050565b8051612dae81612c20565b5f602082840312156132cd575f5ffd5b8151611b3b81612c20565b805169ffffffffffffffffffff81168114612dae575f5ffd5b5f5f5f5f5f60a08688031215613305575f5ffd5b61330e866132d8565b60208701516040880151606089015192975090955093509150613333608087016132d8565b90509295509295909350565b6001600160401b0383168152604060208201525f825160a0604084015261336960e0840182612ca2565b90506020840151603f198483030160608501526133868282612ca2565b6040860151858203603f190160808701528051808352602091820194505f93509101905b808310156133e157835180516001600160a01b031683526020908101518184015290930192600192909201916040909101906133aa565b5060608601516001600160a01b031660a08601526080860151858203603f190160c087015292506134128184612ca2565b979650505050505050565b5f6020828403121561342d575f5ffd5b5051919050565b5f5f82840360e0811215613446575f5ffd5b60c0811215613453575f5ffd5b5061345c613097565b835161346781612d8f565b8152602084015161347781612bde565b6020820152604084015161348a81612bde565b60408201526060848101519082015260808401516134a781612bde565b608082015260a08401516134ba81612bde565b60a082015291506134cd60c084016132b2565b90509250929050565b601f82111561181757805f5260205f20601f840160051c810160208510156134fb5750805b601f840160051c820191505b8181101561351a575f8155600101613507565b5050505050565b81516001600160401b0381111561353a5761353a613039565b61354e816135488454613001565b846134d6565b6020601f821160018114613580575f83156135695750848201515b5f19600385901b1c1916600184901b17845561351a565b5f84815260208120601f198516915b828110156135af578785015182556020948501946001909201910161358f565b50848210156135cc57868401515f19600387901b60f8161c191681555b50505050600190811b01905550565b5f602082840312156135eb575f5ffd5b8151611b3b81612bde565b634e487b7160e01b5f52603160045260245ffdfea2646970667358221220c82bd1a82f2892b608b11143ba8416ac415d80dc0084ac525e700e2d3767610064736f6c634300081d0033",
    "linkReferences": {}
  },
  "methodIdentifiers": {
    "LIQ()": "586d13b3",
    "LTV()": "62965d8e",
    "borrow(uint256,address)": "4b3fd148",
    "ccipReceive((bytes32,uint64,bytes,bytes,(address,uint256)[]))": "85572ffb",
    "getAssetDecimalsOnDest(address)": "d6d13ca4",
    "getAssetDecimalsOnSource(address)": "92f4aaa9",
    "getLatestMessageDetails()": "3394e6f4",
    "getRouter()": "b0f479a1",
    "getTotalUSDValueOfUserByType(address,uint8)": "24e31a4a",
    "getUserPositionForAssetByType(address,address,uint8)": "1a2e374f",
    "getUserPositionForAssetByTypeOnDest(address,address,uint8)": "c65826b7",
    "getUserPositionForAssetByTypeOnSource(address,address,uint8)": "c7f4c1c0",
    "i_sourceChainID()": "545d32cf",
    "isAssetWhitelisted(address)": "e4fbf404",
    "lend(uint256,address)": "b1884744",
    "liquidate(uint256,address,address,address)": "ed5da2a8",
    "listAsset(address,uint8)": "ce702325",
    "owner()": "8da5cb5b",
    "renounceOwnership()": "715018a6",
    "repay(uint256,address)": "acb70815",
    "s_connectedChainID()": "0c3118b4",
    "s_isConnectedChainSet()": "b16c8886",
    "setAssetToAssetOnConnectedChain(address,address,uint8)": "5745d27c",
    "setConnectedChainID(uint64)": "dcce170e",
    "setPriceFeed(address,address)": "76e11286",
    "setReceiverOnConnectedChain(address)": "88264ace",
    "supportsInterface(bytes4)": "01ffc9a7",
    "transferOwnership(address)": "f2fde38b",
    "unlend(uint256,address)": "05cff50c",
    "unlistAsset(address)": "a98a9f45"
  },
  "id": 53
}