{"abi":[{"type":"constructor","inputs":[{"name":"_adminAddress","type":"address","internalType":"address"},{"name":"_nativeAsset","type":"address","internalType":"address"},{"name":"router","type":"address","internalType":"address"}],"stateMutability":"nonpayable"},{"type":"fallback","stateMutability":"payable"},{"type":"receive","stateMutability":"payable"},{"type":"function","name":"LIQ","inputs":[],"outputs":[{"name":"","type":"uint8","internalType":"uint8"}],"stateMutability":"view"},{"type":"function","name":"LTV","inputs":[],"outputs":[{"name":"","type":"uint8","internalType":"uint8"}],"stateMutability":"view"},{"type":"function","name":"borrow","inputs":[{"name":"_amount","type":"uint256","internalType":"uint256"},{"name":"_asset","type":"address","internalType":"address"}],"outputs":[],"stateMutability":"nonpayable"},{"type":"function","name":"ccipReceive","inputs":[{"name":"message","type":"tuple","internalType":"struct Client.Any2EVMMessage","components":[{"name":"messageId","type":"bytes32","internalType":"bytes32"},{"name":"sourceChainSelector","type":"uint64","internalType":"uint64"},{"name":"sender","type":"bytes","internalType":"bytes"},{"name":"data","type":"bytes","internalType":"bytes"},{"name":"destTokenAmounts","type":"tuple[]","internalType":"struct Client.EVMTokenAmount[]","components":[{"name":"token","type":"address","internalType":"address"},{"name":"amount","type":"uint256","internalType":"uint256"}]}]}],"outputs":[],"stateMutability":"nonpayable"},{"type":"function","name":"getAssetDecimalsOnDest","inputs":[{"name":"_asset","type":"address","internalType":"address"}],"outputs":[{"name":"","type":"uint8","internalType":"uint8"}],"stateMutability":"view"},{"type":"function","name":"getAssetDecimalsOnSource","inputs":[{"name":"_asset","type":"address","internalType":"address"}],"outputs":[{"name":"","type":"uint8","internalType":"uint8"}],"stateMutability":"view"},{"type":"function","name":"getLatestMessageDetails","inputs":[],"outputs":[{"name":"","type":"bytes32","internalType":"bytes32"},{"name":"","type":"uint64","internalType":"uint64"},{"name":"","type":"address","internalType":"address"},{"name":"","type":"string","internalType":"string"}],"stateMutability":"view"},{"type":"function","name":"getRouter","inputs":[],"outputs":[{"name":"","type":"address","internalType":"address"}],"stateMutability":"view"},{"type":"function","name":"getTotalUSDValueOfUserByType","inputs":[{"name":"_user","type":"address","internalType":"address"},{"name":"_positionType","type":"uint8","internalType":"uint8"}],"outputs":[{"name":"","type":"uint256","internalType":"uint256"}],"stateMutability":"view"},{"type":"function","name":"getUserPositionForAssetByType","inputs":[{"name":"_asset","type":"address","internalType":"address"},{"name":"_user","type":"address","internalType":"address"},{"name":"_positionType","type":"uint8","internalType":"uint8"}],"outputs":[{"name":"","type":"uint256","internalType":"uint256"}],"stateMutability":"view"},{"type":"function","name":"getUserPositionForAssetByTypeOnDest","inputs":[{"name":"_asset","type":"address","internalType":"address"},{"name":"_user","type":"address","internalType":"address"},{"name":"_positionType","type":"uint8","internalType":"uint8"}],"outputs":[{"name":"","type":"uint256","internalType":"uint256"}],"stateMutability":"view"},{"type":"function","name":"getUserPositionForAssetByTypeOnSource","inputs":[{"name":"_asset","type":"address","internalType":"address"},{"name":"_user","type":"address","internalType":"address"},{"name":"_positionType","type":"uint8","internalType":"uint8"}],"outputs":[{"name":"","type":"uint256","internalType":"uint256"}],"stateMutability":"view"},{"type":"function","name":"i_sourceChainID","inputs":[],"outputs":[{"name":"","type":"uint64","internalType":"uint64"}],"stateMutability":"view"},{"type":"function","name":"isAssetWhitelisted","inputs":[{"name":"_asset","type":"address","internalType":"address"}],"outputs":[{"name":"","type":"bool","internalType":"bool"}],"stateMutability":"view"},{"type":"function","name":"lend","inputs":[{"name":"_amount","type":"uint256","internalType":"uint256"},{"name":"_asset","type":"address","internalType":"address"}],"outputs":[],"stateMutability":"payable"},{"type":"function","name":"liquidate","inputs":[{"name":"_amount","type":"uint256","internalType":"uint256"},{"name":"_asset","type":"address","internalType":"address"},{"name":"_borrower","type":"address","internalType":"address"}],"outputs":[],"stateMutability":"payable"},{"type":"function","name":"listAsset","inputs":[{"name":"_asset","type":"address","internalType":"address"},{"name":"_decimals","type":"uint8","internalType":"uint8"}],"outputs":[],"stateMutability":"nonpayable"},{"type":"function","name":"owner","inputs":[],"outputs":[{"name":"","type":"address","internalType":"address"}],"stateMutability":"view"},{"type":"function","name":"renounceOwnership","inputs":[],"outputs":[],"stateMutability":"nonpayable"},{"type":"function","name":"repay","inputs":[{"name":"_amount","type":"uint256","internalType":"uint256"},{"name":"_asset","type":"address","internalType":"address"}],"outputs":[],"stateMutability":"payable"},{"type":"function","name":"s_connectedChainID","inputs":[],"outputs":[{"name":"","type":"uint64","internalType":"uint64"}],"stateMutability":"view"},{"type":"function","name":"s_isConnectedChainSet","inputs":[],"outputs":[{"name":"","type":"bool","internalType":"bool"}],"stateMutability":"view"},{"type":"function","name":"setAssetToAssetOnConnectedChain","inputs":[{"name":"_asset","type":"address","internalType":"address"},{"name":"_connectedChainAsset","type":"address","internalType":"address"},{"name":"_assetDecimalsOnConnected","type":"uint8","internalType":"uint8"}],"outputs":[],"stateMutability":"nonpayable"},{"type":"function","name":"setConnectedChainID","inputs":[{"name":"_chainID","type":"uint64","internalType":"uint64"}],"outputs":[],"stateMutability":"nonpayable"},{"type":"function","name":"setPriceFeed","inputs":[{"name":"_asset","type":"address","internalType":"address"},{"name":"_feed","type":"address","internalType":"address"}],"outputs":[],"stateMutability":"nonpayable"},{"type":"function","name":"setReceiverOnConnectedChain","inputs":[{"name":"_receiver","type":"address","internalType":"address"}],"outputs":[],"stateMutability":"nonpayable"},{"type":"function","name":"supportsInterface","inputs":[{"name":"interfaceId","type":"bytes4","internalType":"bytes4"}],"outputs":[{"name":"","type":"bool","internalType":"bool"}],"stateMutability":"view"},{"type":"function","name":"transferOwnership","inputs":[{"name":"newOwner","type":"address","internalType":"address"}],"outputs":[],"stateMutability":"nonpayable"},{"type":"function","name":"unlend","inputs":[{"name":"_amount","type":"uint256","internalType":"uint256"},{"name":"_asset","type":"address","internalType":"address"}],"outputs":[],"stateMutability":"nonpayable"},{"type":"function","name":"unlistAsset","inputs":[{"name":"_asset","type":"address","internalType":"address"}],"outputs":[],"stateMutability":"nonpayable"},{"type":"event","name":"MessageReceived","inputs":[{"name":"messageId","type":"bytes32","indexed":true,"internalType":"bytes32"},{"name":"sourceChainSelector","type":"uint64","indexed":true,"internalType":"uint64"},{"name":"sender","type":"address","indexed":false,"internalType":"address"},{"name":"positionType","type":"uint8","indexed":false,"internalType":"uint8"}],"anonymous":false},{"type":"event","name":"MessageSent","inputs":[{"name":"messageId","type":"bytes32","indexed":true,"internalType":"bytes32"},{"name":"destinationChainSelector","type":"uint64","indexed":true,"internalType":"uint64"},{"name":"receiver","type":"address","indexed":false,"internalType":"address"},{"name":"feeToken","type":"address","indexed":false,"internalType":"address"},{"name":"fees","type":"uint256","indexed":false,"internalType":"uint256"}],"anonymous":false},{"type":"event","name":"OwnershipTransferred","inputs":[{"name":"previousOwner","type":"address","indexed":true,"internalType":"address"},{"name":"newOwner","type":"address","indexed":true,"internalType":"address"}],"anonymous":false},{"type":"error","name":"AmountSurpassesLTV","inputs":[]},{"type":"error","name":"CollateralExhausted","inputs":[]},{"type":"error","name":"ConnectedChainNotSet","inputs":[]},{"type":"error","name":"FallbackUnsupported","inputs":[]},{"type":"error","name":"InsufficientCollateralRemaining","inputs":[]},{"type":"error","name":"InsufficientRepayAmount","inputs":[]},{"type":"error","name":"InvalidAddress","inputs":[]},{"type":"error","name":"InvalidAmount","inputs":[]},{"type":"error","name":"InvalidAssetDecimals","inputs":[]},{"type":"error","name":"InvalidOraclePrice","inputs":[]},{"type":"error","name":"InvalidPositionType","inputs":[]},{"type":"error","name":"InvalidRouter","inputs":[{"name":"router","type":"address","internalType":"address"}]},{"type":"error","name":"NoZeroAmount","inputs":[]},{"type":"error","name":"NotConnectedAsset","inputs":[]},{"type":"error","name":"NotEnoughBalance","inputs":[]},{"type":"error","name":"NotWhitelistedAsset","inputs":[]},{"type":"error","name":"OracleCallFailed","inputs":[]},{"type":"error","name":"OwnableInvalidOwner","inputs":[{"name":"owner","type":"address","internalType":"address"}]},{"type":"error","name":"OwnableUnauthorizedAccount","inputs":[{"name":"account","type":"address","internalType":"address"}]},{"type":"error","name":"PriceFeedNotSet","inputs":[]},{"type":"error","name":"ReceiverAddressNotSet","inputs":[]},{"type":"error","name":"ReentrancyGuardReentrantCall","inputs":[]},{"type":"error","name":"SafeERC20FailedOperation","inputs":[{"name":"token","type":"address","internalType":"address"}]},{"type":"error","name":"StaleOraclePrice","inputs":[]},{"type":"error","name":"TransferFailed","inputs":[]},{"type":"error","name":"UserNotLiquidateable","inputs":[]}],"bytecode":{"object":"0x60e060405234801561000f575f5ffd5b50604051616fe6380380616fe6833981810160405281019061003191906103e4565b80835f73ffffffffffffffffffffffffffffffffffffffff168173ffffffffffffffffffffffffffffffffffffffff16036100a3575f6040517f1e4fbdf700000000000000000000000000000000000000000000000000000000815260040161009a9190610443565b60405180910390fd5b6100b2816102c560201b60201c565b50600180819055505f73ffffffffffffffffffffffffffffffffffffffff168173ffffffffffffffffffffffffffffffffffffffff160361012a575f6040517fd7f733340000000000000000000000000000000000000000000000000000000081526004016101219190610443565b60405180910390fd5b8073ffffffffffffffffffffffffffffffffffffffff1660808173ffffffffffffffffffffffffffffffffffffffff168152505050825f73ffffffffffffffffffffffffffffffffffffffff168173ffffffffffffffffffffffffffffffffffffffff16036101c5576040517fe6c4247b00000000000000000000000000000000000000000000000000000000815260040160405180910390fd5b825f73ffffffffffffffffffffffffffffffffffffffff168173ffffffffffffffffffffffffffffffffffffffff160361022b576040517fe6c4247b00000000000000000000000000000000000000000000000000000000815260040160405180910390fd5b8373ffffffffffffffffffffffffffffffffffffffff1660c08173ffffffffffffffffffffffffffffffffffffffff168152505082600d5f6101000a81548173ffffffffffffffffffffffffffffffffffffffff021916908373ffffffffffffffffffffffffffffffffffffffff1602179055504667ffffffffffffffff1660a08167ffffffffffffffff1681525050505050505061045c565b5f5f5f9054906101000a900473ffffffffffffffffffffffffffffffffffffffff169050815f5f6101000a81548173ffffffffffffffffffffffffffffffffffffffff021916908373ffffffffffffffffffffffffffffffffffffffff1602179055508173ffffffffffffffffffffffffffffffffffffffff168173ffffffffffffffffffffffffffffffffffffffff167f8be0079c531659141344cd1fd0a4f28419497f9722a3daafe3b4186f6b6457e060405160405180910390a35050565b5f5ffd5b5f73ffffffffffffffffffffffffffffffffffffffff82169050919050565b5f6103b38261038a565b9050919050565b6103c3816103a9565b81146103cd575f5ffd5b50565b5f815190506103de816103ba565b92915050565b5f5f5f606084860312156103fb576103fa610386565b5b5f610408868287016103d0565b9350506020610419868287016103d0565b925050604061042a868287016103d0565b9150509250925092565b61043d816103a9565b82525050565b5f6020820190506104565f830184610434565b92915050565b60805160a05160c051616b0c6104da5f395f8181610c7701528181610fea0152818161113601528181611dff0152818161277e01528181612bc7015281816144fa0152614cdb01525f8181610b5e01528181611ce601528181611f3a015281816128af01528181612d2601526143e401525f6129db0152616b0c5ff3fe6080604052600436106101d0575f3560e01c806388264ace116100f6578063b188474411610094578063d6d13ca411610063578063d6d13ca41461066e578063dcce170e146106aa578063e4fbf404146106d2578063f2fde38b1461070e576101d7565b8063b1884744146105b2578063c65826b7146105ce578063c7f4c1c01461060a578063ce70232514610646576101d7565b8063a98a9f45116100d0578063a98a9f451461051a578063acb7081514610542578063b0f479a11461055e578063b16c888614610588576101d7565b806388264ace1461048c5780638da5cb5b146104b457806392f4aaa9146104de576101d7565b80634b3fd1481161016e57806362965d8e1161013d57806362965d8e146103fc578063715018a61461042657806376e112861461043c57806385572ffb14610464576101d7565b80634b3fd14814610358578063545d32cf146103805780635745d27c146103aa578063586d13b3146103d2576101d7565b80630c3118b4116101aa5780630c3118b4146102895780631a2e374f146102b357806324e31a4a146102ef5780633394e6f41461032b576101d7565b806301ffc9a71461020957806305cff50c14610245578063060336ec1461026d576101d7565b366101d757005b6040517fd2347d9500000000000000000000000000000000000000000000000000000000815260040160405180910390fd5b348015610214575f5ffd5b5061022f600480360381019061022a9190615415565b610736565b60405161023c919061545a565b60405180910390f35b348015610250575f5ffd5b5061026b60048036038101906102669190615500565b610807565b005b6102876004803603810190610282919061553e565b610db0565b005b348015610294575f5ffd5b5061029d611271565b6040516102aa91906155b0565b60405180910390f35b3480156102be575f5ffd5b506102d960048036038101906102d491906155ff565b61128b565b6040516102e6919061565e565b60405180910390f35b3480156102fa575f5ffd5b5061031560048036038101906103109190615677565b6114ad565b604051610322919061565e565b60405180910390f35b348015610336575f5ffd5b5061033f611976565b60405161034f949392919061574c565b60405180910390f35b348015610363575f5ffd5b5061037e60048036038101906103799190615500565b611a51565b005b34801561038b575f5ffd5b50610394611f38565b6040516103a191906155b0565b60405180910390f35b3480156103b5575f5ffd5b506103d060048036038101906103cb91906155ff565b611f5c565b005b3480156103dd575f5ffd5b506103e6612143565b6040516103f391906157a5565b60405180910390f35b348015610407575f5ffd5b50610410612148565b60405161041d91906157a5565b60405180910390f35b348015610431575f5ffd5b5061043a61214d565b005b348015610447575f5ffd5b50610462600480360381019061045d91906157be565b612160565b005b34801561046f575f5ffd5b5061048a6004803603810190610485919061581e565b61229a565b005b348015610497575f5ffd5b506104b260048036038101906104ad9190615865565b612326565b005b3480156104bf575f5ffd5b506104c86123d9565b6040516104d59190615890565b60405180910390f35b3480156104e9575f5ffd5b5061050460048036038101906104ff9190615865565b612400565b60405161051191906157a5565b60405180910390f35b348015610525575f5ffd5b50610540600480360381019061053b9190615865565b612505565b005b61055c60048036038101906105579190615500565b6125fb565b005b348015610569575f5ffd5b506105726129d8565b60405161057f9190615890565b60405180910390f35b348015610593575f5ffd5b5061059c6129ff565b6040516105a9919061545a565b60405180910390f35b6105cc60048036038101906105c79190615500565b612a11565b005b3480156105d9575f5ffd5b506105f460048036038101906105ef91906155ff565b612e4f565b604051610601919061565e565b60405180910390f35b348015610615575f5ffd5b50610630600480360381019061062b91906155ff565b61317b565b60405161063d919061565e565b60405180910390f35b348015610651575f5ffd5b5061066c60048036038101906106679190615677565b6133ef565b005b348015610679575f5ffd5b50610694600480360381019061068f9190615865565b6134e5565b6040516106a191906157a5565b60405180910390f35b3480156106b5575f5ffd5b506106d060048036038101906106cb91906158d3565b6135ea565b005b3480156106dd575f5ffd5b506106f860048036038101906106f39190615865565b613638565b604051610705919061545a565b60405180910390f35b348015610719575f5ffd5b50610734600480360381019061072f9190615865565b613654565b005b5f7f85572ffb000000000000000000000000000000000000000000000000000000007bffffffffffffffffffffffffffffffffffffffffffffffffffffffff1916827bffffffffffffffffffffffffffffffffffffffffffffffffffffffff1916148061080057507f01ffc9a7000000000000000000000000000000000000000000000000000000007bffffffffffffffffffffffffffffffffffffffffffffffffffffffff1916827bffffffffffffffffffffffffffffffffffffffffffffffffffffffff1916145b9050919050565b61080f6136d8565b8061082481600261371e90919063ffffffff16565b61085a576040517f9216d96300000000000000000000000000000000000000000000000000000000815260040160405180910390fd5b815f73ffffffffffffffffffffffffffffffffffffffff168173ffffffffffffffffffffffffffffffffffffffff16036108c0576040517fe6c4247b00000000000000000000000000000000000000000000000000000000815260040160405180910390fd5b5f84036108f9576040517fe858080300000000000000000000000000000000000000000000000000000000815260040160405180910390fd5b5f6109053360016114ad565b9050610929604051806060016040528060298152602001616a84602991398261374b565b5f6109353360026114ad565b90505f5f610942876137e7565b91509150610968604051806060016040528060248152602001616a606024913983613b2c565b5f60045f8973ffffffffffffffffffffffffffffffffffffffff1673ffffffffffffffffffffffffffffffffffffffff1681526020019081526020015f205f9054906101000a900460ff1690506109da604051806060016040528060268152602001616a3a602691398260ff1661374b565b5f81600a6109e89190615a5a565b848b6109f49190615aa4565b6109fe9190615b12565b9050610a226040518060600160405280602a8152602001616aad602a91398261374b565b80861015610a5c576040517fd752560000000000000000000000000000000000000000000000000000000000815260040160405180910390fd5b60648187610a6a9190615b42565b604b60ff16610a799190615aa4565b610a839190615b12565b851115610abc576040517fb049fb1400000000000000000000000000000000000000000000000000000000815260040160405180910390fd5b5f60055f3373ffffffffffffffffffffffffffffffffffffffff1673ffffffffffffffffffffffffffffffffffffffff1681526020019081526020015f205f8b73ffffffffffffffffffffffffffffffffffffffff1673ffffffffffffffffffffffffffffffffffffffff1681526020019081526020015f2090508a815f015f828254610b499190615b42565b925050819055505f6040518060a001604052807f000000000000000000000000000000000000000000000000000000000000000067ffffffffffffffff1681526020013373ffffffffffffffffffffffffffffffffffffffff16815260200160075f8e73ffffffffffffffffffffffffffffffffffffffff1673ffffffffffffffffffffffffffffffffffffffff1681526020019081526020015f205f9054906101000a900473ffffffffffffffffffffffffffffffffffffffff1673ffffffffffffffffffffffffffffffffffffffff168152602001835f015481526020015f73ffffffffffffffffffffffffffffffffffffffff1681525090505f816001604051602001610c5a929190615c08565b6040516020818303038152906040529050610c7481613bc8565b507f000000000000000000000000000000000000000000000000000000000000000073ffffffffffffffffffffffffffffffffffffffff168c73ffffffffffffffffffffffffffffffffffffffff1603610d6d575f3373ffffffffffffffffffffffffffffffffffffffff168e604051610ced90615c5c565b5f6040518083038185875af1925050503d805f8114610d27576040519150601f19603f3d011682016040523d82523d5f602084013e610d2c565b606091505b5050905080610d67576040517f90b8ec1800000000000000000000000000000000000000000000000000000000815260040160405180910390fd5b50610d99565b610d98338e8e73ffffffffffffffffffffffffffffffffffffffff16613fb59092919063ffffffff16565b5b5050505050505050505050610dac614034565b5050565b610db86136d8565b81610dcd81600261371e90919063ffffffff16565b610e03576040517f9216d96300000000000000000000000000000000000000000000000000000000815260040160405180910390fd5b825f73ffffffffffffffffffffffffffffffffffffffff168173ffffffffffffffffffffffffffffffffffffffff1603610e69576040517fe6c4247b00000000000000000000000000000000000000000000000000000000815260040160405180910390fd5b825f73ffffffffffffffffffffffffffffffffffffffff168173ffffffffffffffffffffffffffffffffffffffff1603610ecf576040517fe6c4247b00000000000000000000000000000000000000000000000000000000815260040160405180910390fd5b5f8603610f08576040517fe858080300000000000000000000000000000000000000000000000000000000815260040160405180910390fd5b5f610f148560016114ad565b90505f610f228660026114ad565b90505f5f610f2f896137e7565b915091505f81600a610f419190615a5a565b838c610f4d9190615aa4565b610f579190615b12565b9050606485605060ff16610f6b9190615aa4565b610f759190615b12565b841015610fae576040517fea9f7e1800000000000000000000000000000000000000000000000000000000815260040160405180910390fd5b83811015610fe8576040517fe480bdff00000000000000000000000000000000000000000000000000000000815260040160405180910390fd5b7f000000000000000000000000000000000000000000000000000000000000000073ffffffffffffffffffffffffffffffffffffffff168a73ffffffffffffffffffffffffffffffffffffffff1603611079578a3414611074576040517f2c5211c600000000000000000000000000000000000000000000000000000000815260040160405180910390fd5b6110a7565b6110a633308d8d73ffffffffffffffffffffffffffffffffffffffff1661403d909392919063ffffffff16565b5b5f8482116110b5575f6110c2565b84826110c19190615b42565b5b90505f6110cf60026140bf565b90505f5f90505b8151811015611111576111048c8383815181106110f6576110f5615c70565b5b6020026020010151336140de565b80806001019150506110d6565b505f82111561125a575f83838f6111289190615aa4565b6111329190615b12565b90507f000000000000000000000000000000000000000000000000000000000000000073ffffffffffffffffffffffffffffffffffffffff168d73ffffffffffffffffffffffffffffffffffffffff16146111b7576111b233828f73ffffffffffffffffffffffffffffffffffffffff16613fb59092919063ffffffff16565b611258565b5f3373ffffffffffffffffffffffffffffffffffffffff16826040516111dc90615c5c565b5f6040518083038185875af1925050503d805f8114611216576040519150601f19603f3d011682016040523d82523d5f602084013e61121b565b606091505b5050905080611256576040517f90b8ec1800000000000000000000000000000000000000000000000000000000815260040160405180910390fd5b505b505b5050505050505050505061126c614034565b505050565b600a60159054906101000a900467ffffffffffffffff1681565b5f835f73ffffffffffffffffffffffffffffffffffffffff168173ffffffffffffffffffffffffffffffffffffffff16036112f2576040517fe6c4247b00000000000000000000000000000000000000000000000000000000815260040160405180910390fd5b835f73ffffffffffffffffffffffffffffffffffffffff168173ffffffffffffffffffffffffffffffffffffffff1603611358576040517fe6c4247b00000000000000000000000000000000000000000000000000000000815260040160405180910390fd5b60018460ff16036113e55760055f8673ffffffffffffffffffffffffffffffffffffffff1673ffffffffffffffffffffffffffffffffffffffff1681526020019081526020015f205f8773ffffffffffffffffffffffffffffffffffffffff1673ffffffffffffffffffffffffffffffffffffffff1681526020019081526020015f205f015492506114a4565b60028460ff16036114725760065f8673ffffffffffffffffffffffffffffffffffffffff1673ffffffffffffffffffffffffffffffffffffffff1681526020019081526020015f205f8773ffffffffffffffffffffffffffffffffffffffff1673ffffffffffffffffffffffffffffffffffffffff1681526020019081526020015f205f015492506114a4565b6040517f87d192c700000000000000000000000000000000000000000000000000000000815260040160405180910390fd5b50509392505050565b5f5f6114b960026140bf565b90505f5f90505f5f90505b825181101561196a575f8382815181106114e1576114e0615c70565b5b602002602001015190505f5f60018860ff16036115f75760055f8a73ffffffffffffffffffffffffffffffffffffffff1673ffffffffffffffffffffffffffffffffffffffff1681526020019081526020015f205f8473ffffffffffffffffffffffffffffffffffffffff1673ffffffffffffffffffffffffffffffffffffffff1681526020019081526020015f205f01549150600b5f8a73ffffffffffffffffffffffffffffffffffffffff1673ffffffffffffffffffffffffffffffffffffffff1681526020019081526020015f205f8473ffffffffffffffffffffffffffffffffffffffff1673ffffffffffffffffffffffffffffffffffffffff1681526020019081526020015f205f0154905061170a565b60028860ff16036117015760065f8a73ffffffffffffffffffffffffffffffffffffffff1673ffffffffffffffffffffffffffffffffffffffff1681526020019081526020015f205f8473ffffffffffffffffffffffffffffffffffffffff1673ffffffffffffffffffffffffffffffffffffffff1681526020019081526020015f205f01549150600c5f8a73ffffffffffffffffffffffffffffffffffffffff1673ffffffffffffffffffffffffffffffffffffffff1681526020019081526020015f205f8473ffffffffffffffffffffffffffffffffffffffff1673ffffffffffffffffffffffffffffffffffffffff1681526020019081526020015f205f01549050611709565b50505061195d565b5b5f8114801561171857505f82145b156117255750505061195d565b5f73ffffffffffffffffffffffffffffffffffffffff1660095f8573ffffffffffffffffffffffffffffffffffffffff1673ffffffffffffffffffffffffffffffffffffffff1681526020019081526020015f205f9054906101000a900473ffffffffffffffffffffffffffffffffffffffff1673ffffffffffffffffffffffffffffffffffffffff16036117bc5750505061195d565b5f5f6117c7856137e7565b915091505f60045f8773ffffffffffffffffffffffffffffffffffffffff1673ffffffffffffffffffffffffffffffffffffffff1681526020019081526020015f205f9054906101000a900460ff1660ff1690505f5f90505f5f90505f8711156118515782600a6118389190615c9d565b85886118449190615aa4565b61184e9190615b12565b91505b5f86111561193b575f60085f8a73ffffffffffffffffffffffffffffffffffffffff1673ffffffffffffffffffffffffffffffffffffffff1681526020019081526020015f205f9054906101000a900460ff1660ff1690505f848211156118dc5784826118be9190615b42565b600a6118ca9190615c9d565b886118d59190615b12565b9050611913565b8185111561190e5781856118f09190615b42565b600a6118fc9190615c9d565b886119079190615aa4565b9050611912565b8790505b5b84600a6119209190615c9d565b878261192c9190615aa4565b6119369190615b12565b925050505b80826119479190615ce7565b8a6119529190615ce7565b995050505050505050505b80806001019150506114c4565b50809250505092915050565b5f5f5f6060600e54600f5f9054906101000a900467ffffffffffffffff16600f60089054906101000a900473ffffffffffffffffffffffffffffffffffffffff1660108080546119c590615d47565b80601f01602080910402602001604051908101604052809291908181526020018280546119f190615d47565b8015611a3c5780601f10611a1357610100808354040283529160200191611a3c565b820191905f5260205f20905b815481529060010190602001808311611a1f57829003601f168201915b50505050509050935093509350935090919293565b611a596136d8565b80611a6e81600261371e90919063ffffffff16565b611aa4576040517f9216d96300000000000000000000000000000000000000000000000000000000815260040160405180910390fd5b815f73ffffffffffffffffffffffffffffffffffffffff168173ffffffffffffffffffffffffffffffffffffffff1603611b0a576040517fe6c4247b00000000000000000000000000000000000000000000000000000000815260040160405180910390fd5b5f8403611b43576040517fe858080300000000000000000000000000000000000000000000000000000000815260040160405180910390fd5b5f611b4f3360016114ad565b90505f611b5d3360026114ad565b90505f60045f8773ffffffffffffffffffffffffffffffffffffffff1673ffffffffffffffffffffffffffffffffffffffff1681526020019081526020015f205f9054906101000a900460ff1660ff1690505f5f611bba886137e7565b915091505f83600a611bcc9190615c9d565b838b611bd89190615aa4565b611be29190615b12565b9050606486604b60ff16611bf69190615aa4565b611c009190615b12565b8582611c0c9190615ce7565b1115611c44576040517f7908e36e00000000000000000000000000000000000000000000000000000000815260040160405180910390fd5b5f60065f3373ffffffffffffffffffffffffffffffffffffffff1673ffffffffffffffffffffffffffffffffffffffff1681526020019081526020015f205f8b73ffffffffffffffffffffffffffffffffffffffff1673ffffffffffffffffffffffffffffffffffffffff1681526020019081526020015f2090508a815f015f828254611cd19190615ce7565b925050819055505f6040518060a001604052807f000000000000000000000000000000000000000000000000000000000000000067ffffffffffffffff1681526020013373ffffffffffffffffffffffffffffffffffffffff16815260200160075f8e73ffffffffffffffffffffffffffffffffffffffff1673ffffffffffffffffffffffffffffffffffffffff1681526020019081526020015f205f9054906101000a900473ffffffffffffffffffffffffffffffffffffffff1673ffffffffffffffffffffffffffffffffffffffff168152602001835f015481526020015f73ffffffffffffffffffffffffffffffffffffffff1681525090505f816002604051602001611de2929190615c08565b6040516020818303038152906040529050611dfc81613bc8565b507f000000000000000000000000000000000000000000000000000000000000000073ffffffffffffffffffffffffffffffffffffffff168c73ffffffffffffffffffffffffffffffffffffffff1603611ef5575f3373ffffffffffffffffffffffffffffffffffffffff168e604051611e7590615c5c565b5f6040518083038185875af1925050503d805f8114611eaf576040519150601f19603f3d011682016040523d82523d5f602084013e611eb4565b606091505b5050905080611eef576040517f90b8ec1800000000000000000000000000000000000000000000000000000000815260040160405180910390fd5b50611f21565b611f20338e8e73ffffffffffffffffffffffffffffffffffffffff16613fb59092919063ffffffff16565b5b5050505050505050505050611f34614034565b5050565b7f000000000000000000000000000000000000000000000000000000000000000081565b611f64614625565b825f73ffffffffffffffffffffffffffffffffffffffff168173ffffffffffffffffffffffffffffffffffffffff1603611fca576040517fe6c4247b00000000000000000000000000000000000000000000000000000000815260040160405180910390fd5b825f73ffffffffffffffffffffffffffffffffffffffff168173ffffffffffffffffffffffffffffffffffffffff1603612030576040517fe6c4247b00000000000000000000000000000000000000000000000000000000815260040160405180910390fd5b5f8360ff160361206c576040517fe236476500000000000000000000000000000000000000000000000000000000815260040160405180910390fd5b8360075f8773ffffffffffffffffffffffffffffffffffffffff1673ffffffffffffffffffffffffffffffffffffffff1681526020019081526020015f205f6101000a81548173ffffffffffffffffffffffffffffffffffffffff021916908373ffffffffffffffffffffffffffffffffffffffff1602179055508260085f8773ffffffffffffffffffffffffffffffffffffffff1673ffffffffffffffffffffffffffffffffffffffff1681526020019081526020015f205f6101000a81548160ff021916908360ff1602179055505050505050565b605081565b604b81565b612155614625565b61215e5f6146ac565b565b612168614625565b805f73ffffffffffffffffffffffffffffffffffffffff168173ffffffffffffffffffffffffffffffffffffffff16036121ce576040517fe6c4247b00000000000000000000000000000000000000000000000000000000815260040160405180910390fd5b826121e381600261371e90919063ffffffff16565b612219576040517f9216d96300000000000000000000000000000000000000000000000000000000815260040160405180910390fd5b8260095f8673ffffffffffffffffffffffffffffffffffffffff1673ffffffffffffffffffffffffffffffffffffffff1681526020019081526020015f205f6101000a81548173ffffffffffffffffffffffffffffffffffffffff021916908373ffffffffffffffffffffffffffffffffffffffff16021790555050505050565b6122a26129d8565b73ffffffffffffffffffffffffffffffffffffffff163373ffffffffffffffffffffffffffffffffffffffff161461231157336040517fd7f733340000000000000000000000000000000000000000000000000000000081526004016123089190615890565b60405180910390fd5b6123238161231e906160c3565b61476d565b50565b61232e614625565b805f73ffffffffffffffffffffffffffffffffffffffff168173ffffffffffffffffffffffffffffffffffffffff1603612394576040517fe6c4247b00000000000000000000000000000000000000000000000000000000815260040160405180910390fd5b81600a60016101000a81548173ffffffffffffffffffffffffffffffffffffffff021916908373ffffffffffffffffffffffffffffffffffffffff1602179055505050565b5f5f5f9054906101000a900473ffffffffffffffffffffffffffffffffffffffff16905090565b5f8161241681600261371e90919063ffffffff16565b61244c576040517f9216d96300000000000000000000000000000000000000000000000000000000815260040160405180910390fd5b825f73ffffffffffffffffffffffffffffffffffffffff168173ffffffffffffffffffffffffffffffffffffffff16036124b2576040517fe6c4247b00000000000000000000000000000000000000000000000000000000815260040160405180910390fd5b60045f8573ffffffffffffffffffffffffffffffffffffffff1673ffffffffffffffffffffffffffffffffffffffff1681526020019081526020015f205f9054906101000a900460ff1692505050919050565b61250d614625565b805f73ffffffffffffffffffffffffffffffffffffffff168173ffffffffffffffffffffffffffffffffffffffff1603612573576040517fe6c4247b00000000000000000000000000000000000000000000000000000000815260040160405180910390fd5b61258782600261371e90919063ffffffff16565b156125f7576125a0826002614f4090919063ffffffff16565b505f60045f8473ffffffffffffffffffffffffffffffffffffffff1673ffffffffffffffffffffffffffffffffffffffff1681526020019081526020015f205f6101000a81548160ff021916908360ff1602179055505b5050565b6126036136d8565b8061261881600261371e90919063ffffffff16565b61264e576040517f9216d96300000000000000000000000000000000000000000000000000000000815260040160405180910390fd5b815f73ffffffffffffffffffffffffffffffffffffffff168173ffffffffffffffffffffffffffffffffffffffff16036126b4576040517fe6c4247b00000000000000000000000000000000000000000000000000000000815260040160405180910390fd5b5f84036126ed576040517fe858080300000000000000000000000000000000000000000000000000000000815260040160405180910390fd5b5f60065f3373ffffffffffffffffffffffffffffffffffffffff1673ffffffffffffffffffffffffffffffffffffffff1681526020019081526020015f205f8573ffffffffffffffffffffffffffffffffffffffff1673ffffffffffffffffffffffffffffffffffffffff1681526020019081526020015f205f01549050808511612778578461277a565b805b94507f000000000000000000000000000000000000000000000000000000000000000073ffffffffffffffffffffffffffffffffffffffff168473ffffffffffffffffffffffffffffffffffffffff16036127df578434146127da575f5ffd5b61280d565b61280c3330878773ffffffffffffffffffffffffffffffffffffffff1661403d909392919063ffffffff16565b5b5f60065f3373ffffffffffffffffffffffffffffffffffffffff1673ffffffffffffffffffffffffffffffffffffffff1681526020019081526020015f205f8673ffffffffffffffffffffffffffffffffffffffff1673ffffffffffffffffffffffffffffffffffffffff1681526020019081526020015f20905085815f015f82825461289a9190615b42565b925050819055505f6040518060a001604052807f000000000000000000000000000000000000000000000000000000000000000067ffffffffffffffff1681526020013373ffffffffffffffffffffffffffffffffffffffff16815260200160075f8973ffffffffffffffffffffffffffffffffffffffff1673ffffffffffffffffffffffffffffffffffffffff1681526020019081526020015f205f9054906101000a900473ffffffffffffffffffffffffffffffffffffffff1673ffffffffffffffffffffffffffffffffffffffff168152602001835f015481526020015f73ffffffffffffffffffffffffffffffffffffffff1681525090505f8160026040516020016129ab929190615c08565b60405160208183030381529060405290506129c581613bc8565b505050505050506129d4614034565b5050565b5f7f0000000000000000000000000000000000000000000000000000000000000000905090565b600a5f9054906101000a900460ff1681565b612a196136d8565b80612a2e81600261371e90919063ffffffff16565b612a64576040517f9216d96300000000000000000000000000000000000000000000000000000000815260040160405180910390fd5b815f73ffffffffffffffffffffffffffffffffffffffff168173ffffffffffffffffffffffffffffffffffffffff1603612aca576040517fe6c4247b00000000000000000000000000000000000000000000000000000000815260040160405180910390fd5b825f73ffffffffffffffffffffffffffffffffffffffff1660075f8373ffffffffffffffffffffffffffffffffffffffff1673ffffffffffffffffffffffffffffffffffffffff1681526020019081526020015f205f9054906101000a900473ffffffffffffffffffffffffffffffffffffffff1673ffffffffffffffffffffffffffffffffffffffff1603612b8c576040517f0c974efb00000000000000000000000000000000000000000000000000000000815260040160405180910390fd5b5f8503612bc5576040517fe858080300000000000000000000000000000000000000000000000000000000815260040160405180910390fd5b7f000000000000000000000000000000000000000000000000000000000000000073ffffffffffffffffffffffffffffffffffffffff168473ffffffffffffffffffffffffffffffffffffffff1603612c5657843414612c51576040517f2c5211c600000000000000000000000000000000000000000000000000000000815260040160405180910390fd5b612c84565b612c833330878773ffffffffffffffffffffffffffffffffffffffff1661403d909392919063ffffffff16565b5b5f60055f3373ffffffffffffffffffffffffffffffffffffffff1673ffffffffffffffffffffffffffffffffffffffff1681526020019081526020015f205f8673ffffffffffffffffffffffffffffffffffffffff1673ffffffffffffffffffffffffffffffffffffffff1681526020019081526020015f20905085815f015f828254612d119190615ce7565b925050819055505f6040518060a001604052807f000000000000000000000000000000000000000000000000000000000000000067ffffffffffffffff1681526020013373ffffffffffffffffffffffffffffffffffffffff16815260200160075f8973ffffffffffffffffffffffffffffffffffffffff1673ffffffffffffffffffffffffffffffffffffffff1681526020019081526020015f205f9054906101000a900473ffffffffffffffffffffffffffffffffffffffff1673ffffffffffffffffffffffffffffffffffffffff168152602001835f015481526020015f73ffffffffffffffffffffffffffffffffffffffff1681525090505f816001604051602001612e22929190615c08565b6040516020818303038152906040529050612e3c81613bc8565b50505050505050612e4b614034565b5050565b5f83612e6581600261371e90919063ffffffff16565b612e9b576040517f9216d96300000000000000000000000000000000000000000000000000000000815260040160405180910390fd5b845f73ffffffffffffffffffffffffffffffffffffffff168173ffffffffffffffffffffffffffffffffffffffff1603612f01576040517fe6c4247b00000000000000000000000000000000000000000000000000000000815260040160405180910390fd5b845f73ffffffffffffffffffffffffffffffffffffffff168173ffffffffffffffffffffffffffffffffffffffff1603612f67576040517fe6c4247b00000000000000000000000000000000000000000000000000000000815260040160405180910390fd5b600160ff168560ff160361305357600b5f8773ffffffffffffffffffffffffffffffffffffffff1673ffffffffffffffffffffffffffffffffffffffff1681526020019081526020015f205f60075f8a73ffffffffffffffffffffffffffffffffffffffff1673ffffffffffffffffffffffffffffffffffffffff1681526020019081526020015f205f9054906101000a900473ffffffffffffffffffffffffffffffffffffffff1673ffffffffffffffffffffffffffffffffffffffff1673ffffffffffffffffffffffffffffffffffffffff1681526020019081526020015f205f01549350613171565b600260ff168560ff160361313f57600c5f8773ffffffffffffffffffffffffffffffffffffffff1673ffffffffffffffffffffffffffffffffffffffff1681526020019081526020015f205f60075f8a73ffffffffffffffffffffffffffffffffffffffff1673ffffffffffffffffffffffffffffffffffffffff1681526020019081526020015f205f9054906101000a900473ffffffffffffffffffffffffffffffffffffffff1673ffffffffffffffffffffffffffffffffffffffff1673ffffffffffffffffffffffffffffffffffffffff1681526020019081526020015f205f01549350613171565b6040517f87d192c700000000000000000000000000000000000000000000000000000000815260040160405180910390fd5b5050509392505050565b5f8361319181600261371e90919063ffffffff16565b6131c7576040517f9216d96300000000000000000000000000000000000000000000000000000000815260040160405180910390fd5b845f73ffffffffffffffffffffffffffffffffffffffff168173ffffffffffffffffffffffffffffffffffffffff160361322d576040517fe6c4247b00000000000000000000000000000000000000000000000000000000815260040160405180910390fd5b845f73ffffffffffffffffffffffffffffffffffffffff168173ffffffffffffffffffffffffffffffffffffffff1603613293576040517fe6c4247b00000000000000000000000000000000000000000000000000000000815260040160405180910390fd5b600160ff168560ff16036133235760055f8773ffffffffffffffffffffffffffffffffffffffff1673ffffffffffffffffffffffffffffffffffffffff1681526020019081526020015f205f8873ffffffffffffffffffffffffffffffffffffffff1673ffffffffffffffffffffffffffffffffffffffff1681526020019081526020015f205f015493506133e5565b600260ff168560ff16036133b35760065f8773ffffffffffffffffffffffffffffffffffffffff1673ffffffffffffffffffffffffffffffffffffffff1681526020019081526020015f205f8873ffffffffffffffffffffffffffffffffffffffff1673ffffffffffffffffffffffffffffffffffffffff1681526020019081526020015f205f015493506133e5565b6040517f87d192c700000000000000000000000000000000000000000000000000000000815260040160405180910390fd5b5050509392505050565b6133f7614625565b815f73ffffffffffffffffffffffffffffffffffffffff168173ffffffffffffffffffffffffffffffffffffffff160361345d576040517fe6c4247b00000000000000000000000000000000000000000000000000000000815260040160405180910390fd5b61347183600261371e90919063ffffffff16565b6134e057613489836002614f6d90919063ffffffff16565b508160045f8573ffffffffffffffffffffffffffffffffffffffff1673ffffffffffffffffffffffffffffffffffffffff1681526020019081526020015f205f6101000a81548160ff021916908360ff1602179055505b505050565b5f816134fb81600261371e90919063ffffffff16565b613531576040517f9216d96300000000000000000000000000000000000000000000000000000000815260040160405180910390fd5b825f73ffffffffffffffffffffffffffffffffffffffff168173ffffffffffffffffffffffffffffffffffffffff1603613597576040517fe6c4247b00000000000000000000000000000000000000000000000000000000815260040160405180910390fd5b60085f8573ffffffffffffffffffffffffffffffffffffffff1673ffffffffffffffffffffffffffffffffffffffff1681526020019081526020015f205f9054906101000a900460ff1692505050919050565b6135f2614625565b80600a60156101000a81548167ffffffffffffffff021916908367ffffffffffffffff1602179055506001600a5f6101000a81548160ff02191690831515021790555050565b5f61364d82600261371e90919063ffffffff16565b9050919050565b61365c614625565b5f73ffffffffffffffffffffffffffffffffffffffff168173ffffffffffffffffffffffffffffffffffffffff16036136cc575f6040517f1e4fbdf70000000000000000000000000000000000000000000000000000000081526004016136c39190615890565b60405180910390fd5b6136d5816146ac565b50565b600260015403613714576040517f3ee5aeb500000000000000000000000000000000000000000000000000000000815260040160405180910390fd5b6002600181905550565b5f613743835f018373ffffffffffffffffffffffffffffffffffffffff165f1b614f9a565b905092915050565b6137e382826040516024016137619291906160d5565b6040516020818303038152906040527fb60e72cc000000000000000000000000000000000000000000000000000000007bffffffffffffffffffffffffffffffffffffffffffffffffffffffff19166020820180517bffffffffffffffffffffffffffffffffffffffffffffffffffffffff8381831617835250505050614fba565b5050565b5f5f5f73ffffffffffffffffffffffffffffffffffffffff1660095f8573ffffffffffffffffffffffffffffffffffffffff1673ffffffffffffffffffffffffffffffffffffffff1681526020019081526020015f205f9054906101000a900473ffffffffffffffffffffffffffffffffffffffff1673ffffffffffffffffffffffffffffffffffffffff16036138aa576040517f7e68a04500000000000000000000000000000000000000000000000000000000815260040160405180910390fd5b60095f8473ffffffffffffffffffffffffffffffffffffffff1673ffffffffffffffffffffffffffffffffffffffff1681526020019081526020015f205f9054906101000a900473ffffffffffffffffffffffffffffffffffffffff1673ffffffffffffffffffffffffffffffffffffffff1663313ce5676040518163ffffffff1660e01b8152600401602060405180830381865afa15801561394f573d5f5f3e3d5ffd5b505050506040513d601f19601f820116820180604052508101906139739190616117565b905060095f8473ffffffffffffffffffffffffffffffffffffffff1673ffffffffffffffffffffffffffffffffffffffff1681526020019081526020015f205f9054906101000a900473ffffffffffffffffffffffffffffffffffffffff1673ffffffffffffffffffffffffffffffffffffffff1663feaf968c6040518163ffffffff1660e01b815260040160a060405180830381865afa925050508015613a3957506040513d601f19601f82011682018060405250810190613a3691906161c8565b60015b613a9f573d805f8114613a67576040519150601f19603f3d011682016040523d82523d5f602084013e613a6c565b606091505b506040517f8390524900000000000000000000000000000000000000000000000000000000815260040160405180910390fd5b42610e1083613aae9190615ce7565b1015613ae6576040517fa887f2d800000000000000000000000000000000000000000000000000000000815260040160405180910390fd5b8396505f8713613b22576040517f1f8f95a000000000000000000000000000000000000000000000000000000000815260040160405180910390fd5b5050505050915091565b613bc48282604051602401613b4292919061624e565b6040516020818303038152906040527f3ca6268e000000000000000000000000000000000000000000000000000000007bffffffffffffffffffffffffffffffffffffffffffffffffffffffff19166020820180517bffffffffffffffffffffffffffffffffffffffffffffffffffffffff8381831617835250505050614fba565b5050565b5f5f73ffffffffffffffffffffffffffffffffffffffff16600a60019054906101000a900473ffffffffffffffffffffffffffffffffffffffff1673ffffffffffffffffffffffffffffffffffffffff1603613c50576040517f13834ca500000000000000000000000000000000000000000000000000000000815260040160405180910390fd5b600a5f9054906101000a900460ff16613c95576040517f459a2bcf00000000000000000000000000000000000000000000000000000000815260040160405180910390fd5b5f6040518060a00160405280600a60019054906101000a900473ffffffffffffffffffffffffffffffffffffffff16604051602001613cd49190615890565b60405160208183030381529060405281526020018481526020015f67ffffffffffffffff811115613d0857613d07615d7b565b5b604051908082528060200260200182016040528015613d4157816020015b613d2e615377565b815260200190600190039081613d265790505b5081526020015f73ffffffffffffffffffffffffffffffffffffffff168152602001613d86604051806040016040528062030d40815260200160011515815250614fd4565b81525090505f600d5f9054906101000a900473ffffffffffffffffffffffffffffffffffffffff1673ffffffffffffffffffffffffffffffffffffffff166320487ded600a60159054906101000a900467ffffffffffffffff16846040518363ffffffff1660e01b8152600401613dfe92919061642b565b602060405180830381865afa158015613e19573d5f5f3e3d5ffd5b505050506040513d601f19601f82011682018060405250810190613e3d9190616459565b905047811115613e79576040517fad3a8b9e00000000000000000000000000000000000000000000000000000000815260040160405180910390fd5b600d5f9054906101000a900473ffffffffffffffffffffffffffffffffffffffff1673ffffffffffffffffffffffffffffffffffffffff166396f4e9f982600a60159054906101000a900467ffffffffffffffff16856040518463ffffffff1660e01b8152600401613eec92919061642b565b60206040518083038185885af1158015613f08573d5f5f3e3d5ffd5b50505050506040513d601f19601f82011682018060405250810190613f2d9190616498565b9250600a60159054906101000a900467ffffffffffffffff1667ffffffffffffffff16837f9fb548811cfe022ba6400d8533a80d63fbc228e596f93603959dc47b1886af54600a60019054906101000a900473ffffffffffffffffffffffffffffffffffffffff165f85604051613fa6939291906164c3565b60405180910390a35050919050565b61402f838473ffffffffffffffffffffffffffffffffffffffff1663a9059cbb8585604051602401613fe89291906164f8565b604051602081830303815290604052915060e01b6020820180517bffffffffffffffffffffffffffffffffffffffffffffffffffffffff8381831617835250505050615053565b505050565b60018081905550565b6140b9848573ffffffffffffffffffffffffffffffffffffffff166323b872dd868686604051602401614072939291906164c3565b604051602081830303815290604052915060e01b6020820180517bffffffffffffffffffffffffffffffffffffffffffffffffffffffff8381831617835250505050615053565b50505050565b60605f6140cd835f016150ee565b905060608190508092505050919050565b5f60055f8573ffffffffffffffffffffffffffffffffffffffff1673ffffffffffffffffffffffffffffffffffffffff1681526020019081526020015f205f8473ffffffffffffffffffffffffffffffffffffffff1673ffffffffffffffffffffffffffffffffffffffff1681526020019081526020015f205f015490505f600b5f8673ffffffffffffffffffffffffffffffffffffffff1673ffffffffffffffffffffffffffffffffffffffff1681526020019081526020015f205f8573ffffffffffffffffffffffffffffffffffffffff1673ffffffffffffffffffffffffffffffffffffffff1681526020019081526020015f205f015490505f60055f8773ffffffffffffffffffffffffffffffffffffffff1673ffffffffffffffffffffffffffffffffffffffff1681526020019081526020015f205f8673ffffffffffffffffffffffffffffffffffffffff1673ffffffffffffffffffffffffffffffffffffffff1681526020019081526020015f205f01819055505f60065f8773ffffffffffffffffffffffffffffffffffffffff1673ffffffffffffffffffffffffffffffffffffffff1681526020019081526020015f205f8673ffffffffffffffffffffffffffffffffffffffff1673ffffffffffffffffffffffffffffffffffffffff1681526020019081526020015f205f01819055505f600b5f8773ffffffffffffffffffffffffffffffffffffffff1673ffffffffffffffffffffffffffffffffffffffff1681526020019081526020015f205f8673ffffffffffffffffffffffffffffffffffffffff1673ffffffffffffffffffffffffffffffffffffffff1681526020019081526020015f205f01819055505f600c5f8773ffffffffffffffffffffffffffffffffffffffff1673ffffffffffffffffffffffffffffffffffffffff1681526020019081526020015f205f8673ffffffffffffffffffffffffffffffffffffffff1673ffffffffffffffffffffffffffffffffffffffff1681526020019081526020015f205f01819055505f6040518060a001604052807f000000000000000000000000000000000000000000000000000000000000000067ffffffffffffffff1681526020018773ffffffffffffffffffffffffffffffffffffffff16815260200160075f8873ffffffffffffffffffffffffffffffffffffffff1673ffffffffffffffffffffffffffffffffffffffff1681526020019081526020015f205f9054906101000a900473ffffffffffffffffffffffffffffffffffffffff1673ffffffffffffffffffffffffffffffffffffffff1681526020018381526020018573ffffffffffffffffffffffffffffffffffffffff1681525090505f8160036040516020016144dd929190615c08565b60405160208183030381529060405290506144f781613bc8565b507f000000000000000000000000000000000000000000000000000000000000000073ffffffffffffffffffffffffffffffffffffffff168673ffffffffffffffffffffffffffffffffffffffff161461457b5761457685858873ffffffffffffffffffffffffffffffffffffffff16613fb59092919063ffffffff16565b61461c565b5f8573ffffffffffffffffffffffffffffffffffffffff16856040516145a090615c5c565b5f6040518083038185875af1925050503d805f81146145da576040519150601f19603f3d011682016040523d82523d5f602084013e6145df565b606091505b505090508061461a576040517f90b8ec1800000000000000000000000000000000000000000000000000000000815260040160405180910390fd5b505b50505050505050565b61462d615147565b73ffffffffffffffffffffffffffffffffffffffff1661464b6123d9565b73ffffffffffffffffffffffffffffffffffffffff16146146aa5761466e615147565b6040517f118cdaa70000000000000000000000000000000000000000000000000000000081526004016146a19190615890565b60405180910390fd5b565b5f5f5f9054906101000a900473ffffffffffffffffffffffffffffffffffffffff169050815f5f6101000a81548173ffffffffffffffffffffffffffffffffffffffff021916908373ffffffffffffffffffffffffffffffffffffffff1602179055508173ffffffffffffffffffffffffffffffffffffffff168173ffffffffffffffffffffffffffffffffffffffff167f8be0079c531659141344cd1fd0a4f28419497f9722a3daafe3b4186f6b6457e060405160405180910390a35050565b5f5f826060015180602001905181019061478791906165d0565b915091506147a38260400151600261371e90919063ffffffff16565b6147d9576040517f9216d96300000000000000000000000000000000000000000000000000000000815260040160405180910390fd5b6148256040518060400160405280602081526020017f4465636f64656420706f736974696f6e2e736f75726365436861696e49443a20815250835f015167ffffffffffffffff1661374b565b6148686040518060400160405280601981526020017f4465636f64656420706f736974696f6e2e63616c6c65723a2000000000000000815250836020015161514e565b6148ab6040518060400160405280601881526020017f4465636f64656420706f736974696f6e2e61737365743a200000000000000000815250836040015161514e565b6148ee6040518060400160405280601981526020017f4465636f64656420706f736974696f6e2e616d6f756e743a2000000000000000815250836060015161374b565b6149316040518060400160405280601d81526020017f4465636f64656420706f736974696f6e2e6c697175696461746f723a20000000815250836080015161514e565b6149736040518060400160405280601681526020017f4465636f64656420706f736974696f6e547970653a20000000000000000000008152508260ff1661374b565b600160ff168160ff1603614a11578160600151600b5f846020015173ffffffffffffffffffffffffffffffffffffffff1673ffffffffffffffffffffffffffffffffffffffff1681526020019081526020015f205f846040015173ffffffffffffffffffffffffffffffffffffffff1673ffffffffffffffffffffffffffffffffffffffff1681526020019081526020015f205f0181905550614e18565b600260ff168160ff1603614aaf578160600151600c5f846020015173ffffffffffffffffffffffffffffffffffffffff1673ffffffffffffffffffffffffffffffffffffffff1681526020019081526020015f205f846040015173ffffffffffffffffffffffffffffffffffffffff1673ffffffffffffffffffffffffffffffffffffffff1681526020019081526020015f205f0181905550614e17565b600360ff168160ff1603614e16575f60055f846020015173ffffffffffffffffffffffffffffffffffffffff1673ffffffffffffffffffffffffffffffffffffffff1681526020019081526020015f205f846040015173ffffffffffffffffffffffffffffffffffffffff1673ffffffffffffffffffffffffffffffffffffffff1681526020019081526020015f205f01819055505f60065f846020015173ffffffffffffffffffffffffffffffffffffffff1673ffffffffffffffffffffffffffffffffffffffff1681526020019081526020015f205f846040015173ffffffffffffffffffffffffffffffffffffffff1673ffffffffffffffffffffffffffffffffffffffff1681526020019081526020015f205f01819055505f600c5f846020015173ffffffffffffffffffffffffffffffffffffffff1673ffffffffffffffffffffffffffffffffffffffff1681526020019081526020015f205f846040015173ffffffffffffffffffffffffffffffffffffffff1673ffffffffffffffffffffffffffffffffffffffff1681526020019081526020015f205f01819055505f600b5f846020015173ffffffffffffffffffffffffffffffffffffffff1673ffffffffffffffffffffffffffffffffffffffff1681526020019081526020015f205f846040015173ffffffffffffffffffffffffffffffffffffffff1673ffffffffffffffffffffffffffffffffffffffff1681526020019081526020015f205f01819055507f000000000000000000000000000000000000000000000000000000000000000073ffffffffffffffffffffffffffffffffffffffff16826040015173ffffffffffffffffffffffffffffffffffffffff1614614d6c57614d6782608001518360600151846040015173ffffffffffffffffffffffffffffffffffffffff16613fb59092919063ffffffff16565b614e15565b5f826080015173ffffffffffffffffffffffffffffffffffffffff168360600151604051614d9990615c5c565b5f6040518083038185875af1925050503d805f8114614dd3576040519150601f19603f3d011682016040523d82523d5f602084013e614dd8565b606091505b5050905080614e13576040517f90b8ec1800000000000000000000000000000000000000000000000000000000815260040160405180910390fd5b505b5b5b5b825f0151600e819055508260200151600f5f6101000a81548167ffffffffffffffff021916908367ffffffffffffffff1602179055508160200151600f60086101000a81548173ffffffffffffffffffffffffffffffffffffffff021916908373ffffffffffffffffffffffffffffffffffffffff1602179055506040518060400160405280600b81526020017f4e4557204d45535341474500000000000000000000000000000000000000000081525060109081614ed791906167ae565b50826020015167ffffffffffffffff16835f01517fc961d0c2c015e6d8acd4258de0fd4daa7a05039ed1c66e0e9c84a5ab1fc4907b8560400151806020019051810190614f2491906168b8565b84604051614f33929190616935565b60405180910390a3505050565b5f614f65835f018373ffffffffffffffffffffffffffffffffffffffff165f1b6151ea565b905092915050565b5f614f92835f018373ffffffffffffffffffffffffffffffffffffffff165f1b6152e6565b905092915050565b5f5f836001015f8481526020019081526020015f20541415905092915050565b614fd181614fc961534d61536c565b63ffffffff16565b50565b606063181dcf1060e01b82604051602401614fef9190616998565b604051602081830303815290604052907bffffffffffffffffffffffffffffffffffffffffffffffffffffffff19166020820180517bffffffffffffffffffffffffffffffffffffffffffffffffffffffff83818316178352505050509050919050565b5f5f60205f8451602086015f885af180615072576040513d5f823e3d81fd5b3d92505f519150505f821461508b5760018114156150a6565b5f8473ffffffffffffffffffffffffffffffffffffffff163b145b156150e857836040517f5274afe70000000000000000000000000000000000000000000000000000000081526004016150df9190615890565b60405180910390fd5b50505050565b6060815f0180548060200260200160405190810160405280929190818152602001828054801561513b57602002820191905f5260205f20905b815481526020019060010190808311615127575b50505050509050919050565b5f33905090565b6151e682826040516024016151649291906169b1565b6040516020818303038152906040527f319af333000000000000000000000000000000000000000000000000000000007bffffffffffffffffffffffffffffffffffffffffffffffffffffffff19166020820180517bffffffffffffffffffffffffffffffffffffffffffffffffffffffff8381831617835250505050614fba565b5050565b5f5f836001015f8481526020019081526020015f205490505f81146152db575f6001826152179190615b42565b90505f6001865f018054905061522d9190615b42565b9050808214615293575f865f01828154811061524c5761524b615c70565b5b905f5260205f200154905080875f01848154811061526d5761526c615c70565b5b905f5260205f20018190555083876001015f8381526020019081526020015f2081905550505b855f018054806152a6576152a56169df565b5b600190038181905f5260205f20015f90559055856001015f8681526020019081526020015f205f9055600193505050506152e0565b5f9150505b92915050565b5f6152f18383614f9a565b61534357825f0182908060018154018082558091505060019003905f5260205f20015f9091909190915055825f0180549050836001015f8481526020019081526020015f208190555060019050615347565b5f90505b92915050565b5f6a636f6e736f6c652e6c6f6790505f5f835160208501845afa505050565b6153a5819050919050565b60405180604001604052805f73ffffffffffffffffffffffffffffffffffffffff1681526020015f81525090565b6153ad616a0c565b565b5f604051905090565b5f5ffd5b5f5ffd5b5f7fffffffff0000000000000000000000000000000000000000000000000000000082169050919050565b6153f4816153c0565b81146153fe575f5ffd5b50565b5f8135905061540f816153eb565b92915050565b5f6020828403121561542a576154296153b8565b5b5f61543784828501615401565b91505092915050565b5f8115159050919050565b61545481615440565b82525050565b5f60208201905061546d5f83018461544b565b92915050565b5f819050919050565b61548581615473565b811461548f575f5ffd5b50565b5f813590506154a08161547c565b92915050565b5f73ffffffffffffffffffffffffffffffffffffffff82169050919050565b5f6154cf826154a6565b9050919050565b6154df816154c5565b81146154e9575f5ffd5b50565b5f813590506154fa816154d6565b92915050565b5f5f60408385031215615516576155156153b8565b5b5f61552385828601615492565b9250506020615534858286016154ec565b9150509250929050565b5f5f5f60608486031215615555576155546153b8565b5b5f61556286828701615492565b9350506020615573868287016154ec565b9250506040615584868287016154ec565b9150509250925092565b5f67ffffffffffffffff82169050919050565b6155aa8161558e565b82525050565b5f6020820190506155c35f8301846155a1565b92915050565b5f60ff82169050919050565b6155de816155c9565b81146155e8575f5ffd5b50565b5f813590506155f9816155d5565b92915050565b5f5f5f60608486031215615616576156156153b8565b5b5f615623868287016154ec565b9350506020615634868287016154ec565b9250506040615645868287016155eb565b9150509250925092565b61565881615473565b82525050565b5f6020820190506156715f83018461564f565b92915050565b5f5f6040838503121561568d5761568c6153b8565b5b5f61569a858286016154ec565b92505060206156ab858286016155eb565b9150509250929050565b5f819050919050565b6156c7816156b5565b82525050565b6156d6816154c5565b82525050565b5f81519050919050565b5f82825260208201905092915050565b8281835e5f83830152505050565b5f601f19601f8301169050919050565b5f61571e826156dc565b61572881856156e6565b93506157388185602086016156f6565b61574181615704565b840191505092915050565b5f60808201905061575f5f8301876156be565b61576c60208301866155a1565b61577960408301856156cd565b818103606083015261578b8184615714565b905095945050505050565b61579f816155c9565b82525050565b5f6020820190506157b85f830184615796565b92915050565b5f5f604083850312156157d4576157d36153b8565b5b5f6157e1858286016154ec565b92505060206157f2858286016154ec565b9150509250929050565b5f5ffd5b5f60a08284031215615815576158146157fc565b5b81905092915050565b5f60208284031215615833576158326153b8565b5b5f82013567ffffffffffffffff8111156158505761584f6153bc565b5b61585c84828501615800565b91505092915050565b5f6020828403121561587a576158796153b8565b5b5f615887848285016154ec565b91505092915050565b5f6020820190506158a35f8301846156cd565b92915050565b6158b28161558e565b81146158bc575f5ffd5b50565b5f813590506158cd816158a9565b92915050565b5f602082840312156158e8576158e76153b8565b5b5f6158f5848285016158bf565b91505092915050565b7f4e487b71000000000000000000000000000000000000000000000000000000005f52601160045260245ffd5b5f8160011c9050919050565b5f5f8291508390505b60018511156159805780860481111561595c5761595b6158fe565b5b600185161561596b5780820291505b80810290506159798561592b565b9450615940565b94509492505050565b5f826159985760019050615a53565b816159a5575f9050615a53565b81600181146159bb57600281146159c5576159f4565b6001915050615a53565b60ff8411156159d7576159d66158fe565b5b8360020a9150848211156159ee576159ed6158fe565b5b50615a53565b5060208310610133831016604e8410600b8410161715615a295782820a905083811115615a2457615a236158fe565b5b615a53565b615a368484846001615937565b92509050818404811115615a4d57615a4c6158fe565b5b81810290505b9392505050565b5f615a6482615473565b9150615a6f836155c9565b9250615a9c7fffffffffffffffffffffffffffffffffffffffffffffffffffffffffffffffff8484615989565b905092915050565b5f615aae82615473565b9150615ab983615473565b9250828202615ac781615473565b91508282048414831517615ade57615add6158fe565b5b5092915050565b7f4e487b71000000000000000000000000000000000000000000000000000000005f52601260045260245ffd5b5f615b1c82615473565b9150615b2783615473565b925082615b3757615b36615ae5565b5b828204905092915050565b5f615b4c82615473565b9150615b5783615473565b9250828203905081811115615b6f57615b6e6158fe565b5b92915050565b615b7e8161558e565b82525050565b615b8d816154c5565b82525050565b615b9c81615473565b82525050565b60a082015f820151615bb65f850182615b75565b506020820151615bc96020850182615b84565b506040820151615bdc6040850182615b84565b506060820151615bef6060850182615b93565b506080820151615c026080850182615b84565b50505050565b5f60c082019050615c1b5f830185615ba2565b615c2860a0830184615796565b9392505050565b5f81905092915050565b50565b5f615c475f83615c2f565b9150615c5282615c39565b5f82019050919050565b5f615c6682615c3c565b9150819050919050565b7f4e487b71000000000000000000000000000000000000000000000000000000005f52603260045260245ffd5b5f615ca782615473565b9150615cb283615473565b9250615cdf7fffffffffffffffffffffffffffffffffffffffffffffffffffffffffffffffff8484615989565b905092915050565b5f615cf182615473565b9150615cfc83615473565b9250828201905080821115615d1457615d136158fe565b5b92915050565b7f4e487b71000000000000000000000000000000000000000000000000000000005f52602260045260245ffd5b5f6002820490506001821680615d5e57607f821691505b602082108103615d7157615d70615d1a565b5b50919050565b5f5ffd5b7f4e487b71000000000000000000000000000000000000000000000000000000005f52604160045260245ffd5b615db182615704565b810181811067ffffffffffffffff82111715615dd057615dcf615d7b565b5b80604052505050565b5f615de26153af565b9050615dee8282615da8565b919050565b5f5ffd5b615e00816156b5565b8114615e0a575f5ffd5b50565b5f81359050615e1b81615df7565b92915050565b5f5ffd5b5f5ffd5b5f67ffffffffffffffff821115615e4357615e42615d7b565b5b615e4c82615704565b9050602081019050919050565b828183375f83830152505050565b5f615e79615e7484615e29565b615dd9565b905082815260208101848484011115615e9557615e94615e25565b5b615ea0848285615e59565b509392505050565b5f82601f830112615ebc57615ebb615e21565b5b8135615ecc848260208601615e67565b91505092915050565b5f67ffffffffffffffff821115615eef57615eee615d7b565b5b602082029050602081019050919050565b5f5ffd5b5f60408284031215615f1957615f18615d77565b5b615f236040615dd9565b90505f615f32848285016154ec565b5f830152506020615f4584828501615492565b60208301525092915050565b5f615f63615f5e84615ed5565b615dd9565b90508083825260208201905060408402830185811115615f8657615f85615f00565b5b835b81811015615faf5780615f9b8882615f04565b845260208401935050604081019050615f88565b5050509392505050565b5f82601f830112615fcd57615fcc615e21565b5b8135615fdd848260208601615f51565b91505092915050565b5f60a08284031215615ffb57615ffa615d77565b5b61600560a0615dd9565b90505f61601484828501615e0d565b5f830152506020616027848285016158bf565b602083015250604082013567ffffffffffffffff81111561604b5761604a615df3565b5b61605784828501615ea8565b604083015250606082013567ffffffffffffffff81111561607b5761607a615df3565b5b61608784828501615ea8565b606083015250608082013567ffffffffffffffff8111156160ab576160aa615df3565b5b6160b784828501615fb9565b60808301525092915050565b5f6160ce3683615fe6565b9050919050565b5f6040820190508181035f8301526160ed8185615714565b90506160fc602083018461564f565b9392505050565b5f81519050616111816155d5565b92915050565b5f6020828403121561612c5761612b6153b8565b5b5f61613984828501616103565b91505092915050565b5f69ffffffffffffffffffff82169050919050565b61616081616142565b811461616a575f5ffd5b50565b5f8151905061617b81616157565b92915050565b5f819050919050565b61619381616181565b811461619d575f5ffd5b50565b5f815190506161ae8161618a565b92915050565b5f815190506161c28161547c565b92915050565b5f5f5f5f5f60a086880312156161e1576161e06153b8565b5b5f6161ee8882890161616d565b95505060206161ff888289016161a0565b9450506040616210888289016161b4565b9350506060616221888289016161b4565b92505060806162328882890161616d565b9150509295509295909350565b61624881616181565b82525050565b5f6040820190508181035f8301526162668185615714565b9050616275602083018461623f565b9392505050565b5f81519050919050565b5f82825260208201905092915050565b5f6162a08261627c565b6162aa8185616286565b93506162ba8185602086016156f6565b6162c381615704565b840191505092915050565b5f81519050919050565b5f82825260208201905092915050565b5f819050602082019050919050565b604082015f82015161630b5f850182615b84565b50602082015161631e6020850182615b93565b50505050565b5f61632f83836162f7565b60408301905092915050565b5f602082019050919050565b5f616351826162ce565b61635b81856162d8565b9350616366836162e8565b805f5b8381101561639657815161637d8882616324565b97506163888361633b565b925050600181019050616369565b5085935050505092915050565b5f60a083015f8301518482035f8601526163bd8282616296565b915050602083015184820360208601526163d78282616296565b915050604083015184820360408601526163f18282616347565b91505060608301516164066060860182615b84565b506080830151848203608086015261641e8282616296565b9150508091505092915050565b5f60408201905061643e5f8301856155a1565b818103602083015261645081846163a3565b90509392505050565b5f6020828403121561646e5761646d6153b8565b5b5f61647b848285016161b4565b91505092915050565b5f8151905061649281615df7565b92915050565b5f602082840312156164ad576164ac6153b8565b5b5f6164ba84828501616484565b91505092915050565b5f6060820190506164d65f8301866156cd565b6164e360208301856156cd565b6164f0604083018461564f565b949350505050565b5f60408201905061650b5f8301856156cd565b616518602083018461564f565b9392505050565b5f8151905061652d816158a9565b92915050565b5f81519050616541816154d6565b92915050565b5f60a0828403121561655c5761655b615d77565b5b61656660a0615dd9565b90505f6165758482850161651f565b5f83015250602061658884828501616533565b602083015250604061659c84828501616533565b60408301525060606165b0848285016161b4565b60608301525060806165c484828501616533565b60808301525092915050565b5f5f60c083850312156165e6576165e56153b8565b5b5f6165f385828601616547565b92505060a061660485828601616103565b9150509250929050565b5f819050815f5260205f209050919050565b5f6020601f8301049050919050565b5f82821b905092915050565b5f6008830261666a7fffffffffffffffffffffffffffffffffffffffffffffffffffffffffffffffff8261662f565b616674868361662f565b95508019841693508086168417925050509392505050565b5f819050919050565b5f6166af6166aa6166a584615473565b61668c565b615473565b9050919050565b5f819050919050565b6166c883616695565b6166dc6166d4826166b6565b84845461663b565b825550505050565b5f5f905090565b6166f36166e4565b6166fe8184846166bf565b505050565b5b81811015616721576167165f826166eb565b600181019050616704565b5050565b601f821115616766576167378161660e565b61674084616620565b8101602085101561674f578190505b61676361675b85616620565b830182616703565b50505b505050565b5f82821c905092915050565b5f6167865f198460080261676b565b1980831691505092915050565b5f61679e8383616777565b9150826002028217905092915050565b6167b7826156dc565b67ffffffffffffffff8111156167d0576167cf615d7b565b5b6167da8254615d47565b6167e5828285616725565b5f60209050601f831160018114616816575f8415616804578287015190505b61680e8582616793565b865550616875565b601f1984166168248661660e565b5f5b8281101561684b57848901518255600182019150602085019450602081019050616826565b868310156168685784890151616864601f891682616777565b8355505b6001600288020188555050505b505050505050565b5f616887826154a6565b9050919050565b6168978161687d565b81146168a1575f5ffd5b50565b5f815190506168b28161688e565b92915050565b5f602082840312156168cd576168cc6153b8565b5b5f6168da848285016168a4565b91505092915050565b5f6168fd6168f86168f3846154a6565b61668c565b6154a6565b9050919050565b5f61690e826168e3565b9050919050565b5f61691f82616904565b9050919050565b61692f81616915565b82525050565b5f6040820190506169485f830185616926565b6169556020830184615796565b9392505050565b61696581615440565b82525050565b604082015f82015161697f5f850182615b93565b506020820151616992602085018261695c565b50505050565b5f6040820190506169ab5f83018461696b565b92915050565b5f6040820190508181035f8301526169c98185615714565b90506169d860208301846156cd565b9392505050565b7f4e487b71000000000000000000000000000000000000000000000000000000005f52603160045260245ffd5b7f4e487b71000000000000000000000000000000000000000000000000000000005f52605160045260245ffdfe756e6c656e642028696e7465726e616c293a206c6f63616c4173736574446563696d616c733a756e6c656e642028696e7465726e616c293a20707269636520666f72205f61737365743a756e6c656e642028696e7465726e616c293a2075736572546f74616c4c656e6455534456616c75653a756e6c656e642028696e7465726e616c293a2063757272656e74556e6c656e64416d6f756e745553443aa2646970667358221220ccc09ca6413b647b20912f4c201e44dd4df26f94c09802b84e3c4fd22d13e3d664736f6c634300081d0033","linkReferences":{}},"methodIdentifiers":{"LIQ()":"586d13b3","LTV()":"62965d8e","borrow(uint256,address)":"4b3fd148","ccipReceive((bytes32,uint64,bytes,bytes,(address,uint256)[]))":"85572ffb","getAssetDecimalsOnDest(address)":"d6d13ca4","getAssetDecimalsOnSource(address)":"92f4aaa9","getLatestMessageDetails()":"3394e6f4","getRouter()":"b0f479a1","getTotalUSDValueOfUserByType(address,uint8)":"24e31a4a","getUserPositionForAssetByType(address,address,uint8)":"1a2e374f","getUserPositionForAssetByTypeOnDest(address,address,uint8)":"c65826b7","getUserPositionForAssetByTypeOnSource(address,address,uint8)":"c7f4c1c0","i_sourceChainID()":"545d32cf","isAssetWhitelisted(address)":"e4fbf404","lend(uint256,address)":"b1884744","liquidate(uint256,address,address)":"060336ec","listAsset(address,uint8)":"ce702325","owner()":"8da5cb5b","renounceOwnership()":"715018a6","repay(uint256,address)":"acb70815","s_connectedChainID()":"0c3118b4","s_isConnectedChainSet()":"b16c8886","setAssetToAssetOnConnectedChain(address,address,uint8)":"5745d27c","setConnectedChainID(uint64)":"dcce170e","setPriceFeed(address,address)":"76e11286","setReceiverOnConnectedChain(address)":"88264ace","supportsInterface(bytes4)":"01ffc9a7","transferOwnership(address)":"f2fde38b","unlend(uint256,address)":"05cff50c","unlistAsset(address)":"a98a9f45"},"id":51}