{"abi":[{"type":"constructor","inputs":[{"name":"_adminAddress","type":"address","internalType":"address"},{"name":"_nativeAsset","type":"address","internalType":"address"},{"name":"router","type":"address","internalType":"address"}],"stateMutability":"nonpayable"},{"type":"fallback","stateMutability":"payable"},{"type":"receive","stateMutability":"payable"},{"type":"function","name":"LIQ","inputs":[],"outputs":[{"name":"","type":"uint8","internalType":"uint8"}],"stateMutability":"view"},{"type":"function","name":"LTV","inputs":[],"outputs":[{"name":"","type":"uint8","internalType":"uint8"}],"stateMutability":"view"},{"type":"function","name":"borrow","inputs":[{"name":"_amount","type":"uint256","internalType":"uint256"},{"name":"_asset","type":"address","internalType":"address"}],"outputs":[],"stateMutability":"nonpayable"},{"type":"function","name":"ccipReceive","inputs":[{"name":"message","type":"tuple","internalType":"struct Client.Any2EVMMessage","components":[{"name":"messageId","type":"bytes32","internalType":"bytes32"},{"name":"sourceChainSelector","type":"uint64","internalType":"uint64"},{"name":"sender","type":"bytes","internalType":"bytes"},{"name":"data","type":"bytes","internalType":"bytes"},{"name":"destTokenAmounts","type":"tuple[]","internalType":"struct Client.EVMTokenAmount[]","components":[{"name":"token","type":"address","internalType":"address"},{"name":"amount","type":"uint256","internalType":"uint256"}]}]}],"outputs":[],"stateMutability":"nonpayable"},{"type":"function","name":"getAssetDecimalsOnDest","inputs":[{"name":"_asset","type":"address","internalType":"address"}],"outputs":[{"name":"","type":"uint8","internalType":"uint8"}],"stateMutability":"view"},{"type":"function","name":"getAssetDecimalsOnSource","inputs":[{"name":"_asset","type":"address","internalType":"address"}],"outputs":[{"name":"","type":"uint8","internalType":"uint8"}],"stateMutability":"view"},{"type":"function","name":"getLatestMessageDetails","inputs":[],"outputs":[{"name":"","type":"bytes32","internalType":"bytes32"},{"name":"","type":"uint64","internalType":"uint64"},{"name":"","type":"address","internalType":"address"},{"name":"","type":"string","internalType":"string"}],"stateMutability":"view"},{"type":"function","name":"getRouter","inputs":[],"outputs":[{"name":"","type":"address","internalType":"address"}],"stateMutability":"view"},{"type":"function","name":"getTotalUSDValueOfUserByType","inputs":[{"name":"_user","type":"address","internalType":"address"},{"name":"_positionType","type":"uint8","internalType":"uint8"}],"outputs":[{"name":"","type":"uint256","internalType":"uint256"}],"stateMutability":"view"},{"type":"function","name":"getUserPositionForAssetByType","inputs":[{"name":"_asset","type":"address","internalType":"address"},{"name":"_user","type":"address","internalType":"address"},{"name":"_positionType","type":"uint8","internalType":"uint8"}],"outputs":[{"name":"","type":"uint256","internalType":"uint256"}],"stateMutability":"view"},{"type":"function","name":"getUserPositionForAssetByTypeOnDest","inputs":[{"name":"_asset","type":"address","internalType":"address"},{"name":"_user","type":"address","internalType":"address"},{"name":"_positionType","type":"uint8","internalType":"uint8"}],"outputs":[{"name":"","type":"uint256","internalType":"uint256"}],"stateMutability":"view"},{"type":"function","name":"getUserPositionForAssetByTypeOnSource","inputs":[{"name":"_asset","type":"address","internalType":"address"},{"name":"_user","type":"address","internalType":"address"},{"name":"_positionType","type":"uint8","internalType":"uint8"}],"outputs":[{"name":"","type":"uint256","internalType":"uint256"}],"stateMutability":"view"},{"type":"function","name":"i_nativeAssetAddress","inputs":[],"outputs":[{"name":"","type":"address","internalType":"address"}],"stateMutability":"view"},{"type":"function","name":"i_sourceChainID","inputs":[],"outputs":[{"name":"","type":"uint64","internalType":"uint64"}],"stateMutability":"view"},{"type":"function","name":"isAssetWhitelisted","inputs":[{"name":"_asset","type":"address","internalType":"address"}],"outputs":[{"name":"","type":"bool","internalType":"bool"}],"stateMutability":"view"},{"type":"function","name":"lend","inputs":[{"name":"_amount","type":"uint256","internalType":"uint256"},{"name":"_asset","type":"address","internalType":"address"}],"outputs":[],"stateMutability":"payable"},{"type":"function","name":"liquidate","inputs":[{"name":"_amount","type":"uint256","internalType":"uint256"},{"name":"_assetPaidByLiquidator","type":"address","internalType":"address"},{"name":"_borrower","type":"address","internalType":"address"}],"outputs":[],"stateMutability":"payable"},{"type":"function","name":"listAsset","inputs":[{"name":"_asset","type":"address","internalType":"address"},{"name":"_decimals","type":"uint8","internalType":"uint8"}],"outputs":[],"stateMutability":"nonpayable"},{"type":"function","name":"owner","inputs":[],"outputs":[{"name":"","type":"address","internalType":"address"}],"stateMutability":"view"},{"type":"function","name":"renounceOwnership","inputs":[],"outputs":[],"stateMutability":"nonpayable"},{"type":"function","name":"repay","inputs":[{"name":"_amount","type":"uint256","internalType":"uint256"},{"name":"_asset","type":"address","internalType":"address"}],"outputs":[],"stateMutability":"payable"},{"type":"function","name":"s_assetDecimals","inputs":[{"name":"","type":"address","internalType":"address"}],"outputs":[{"name":"","type":"uint8","internalType":"uint8"}],"stateMutability":"view"},{"type":"function","name":"s_assetDecimalsOnConnectedChain","inputs":[{"name":"","type":"address","internalType":"address"}],"outputs":[{"name":"","type":"uint8","internalType":"uint8"}],"stateMutability":"view"},{"type":"function","name":"s_assetToAssetOnConnectedChain","inputs":[{"name":"","type":"address","internalType":"address"}],"outputs":[{"name":"","type":"address","internalType":"address"}],"stateMutability":"view"},{"type":"function","name":"s_connectedChainID","inputs":[],"outputs":[{"name":"","type":"uint64","internalType":"uint64"}],"stateMutability":"view"},{"type":"function","name":"s_isConnectedChainSet","inputs":[],"outputs":[{"name":"","type":"bool","internalType":"bool"}],"stateMutability":"view"},{"type":"function","name":"s_receiverOnConnectedChain","inputs":[],"outputs":[{"name":"","type":"address","internalType":"address"}],"stateMutability":"view"},{"type":"function","name":"s_router","inputs":[],"outputs":[{"name":"","type":"address","internalType":"contract IRouterClient"}],"stateMutability":"view"},{"type":"function","name":"setAssetToAssetOnConnectedChain","inputs":[{"name":"_asset","type":"address","internalType":"address"},{"name":"_connectedChainAsset","type":"address","internalType":"address"},{"name":"_assetDecimalsOnConnected","type":"uint8","internalType":"uint8"}],"outputs":[],"stateMutability":"nonpayable"},{"type":"function","name":"setConnectedChainID","inputs":[{"name":"_chainID","type":"uint64","internalType":"uint64"}],"outputs":[],"stateMutability":"nonpayable"},{"type":"function","name":"setPriceFeed","inputs":[{"name":"_asset","type":"address","internalType":"address"},{"name":"_feed","type":"address","internalType":"address"}],"outputs":[],"stateMutability":"nonpayable"},{"type":"function","name":"setReceiverOnConnectedChain","inputs":[{"name":"_receiver","type":"address","internalType":"address"}],"outputs":[],"stateMutability":"nonpayable"},{"type":"function","name":"supportsInterface","inputs":[{"name":"interfaceId","type":"bytes4","internalType":"bytes4"}],"outputs":[{"name":"","type":"bool","internalType":"bool"}],"stateMutability":"view"},{"type":"function","name":"transferOwnership","inputs":[{"name":"newOwner","type":"address","internalType":"address"}],"outputs":[],"stateMutability":"nonpayable"},{"type":"function","name":"unlend","inputs":[{"name":"_amount","type":"uint256","internalType":"uint256"},{"name":"_asset","type":"address","internalType":"address"}],"outputs":[],"stateMutability":"nonpayable"},{"type":"function","name":"unlistAsset","inputs":[{"name":"_asset","type":"address","internalType":"address"}],"outputs":[],"stateMutability":"nonpayable"},{"type":"event","name":"MessageReceived","inputs":[{"name":"messageId","type":"bytes32","indexed":true,"internalType":"bytes32"},{"name":"sourceChainSelector","type":"uint64","indexed":true,"internalType":"uint64"},{"name":"sender","type":"address","indexed":false,"internalType":"address"},{"name":"positionType","type":"uint8","indexed":false,"internalType":"uint8"}],"anonymous":false},{"type":"event","name":"MessageSent","inputs":[{"name":"messageId","type":"bytes32","indexed":true,"internalType":"bytes32"},{"name":"destinationChainSelector","type":"uint64","indexed":true,"internalType":"uint64"},{"name":"receiver","type":"address","indexed":false,"internalType":"address"},{"name":"feeToken","type":"address","indexed":false,"internalType":"address"},{"name":"fees","type":"uint256","indexed":false,"internalType":"uint256"}],"anonymous":false},{"type":"event","name":"OwnershipTransferred","inputs":[{"name":"previousOwner","type":"address","indexed":true,"internalType":"address"},{"name":"newOwner","type":"address","indexed":true,"internalType":"address"}],"anonymous":false},{"type":"error","name":"AmountSurpassesLTV","inputs":[]},{"type":"error","name":"CollateralExhausted","inputs":[]},{"type":"error","name":"ConnectedChainNotSet","inputs":[]},{"type":"error","name":"FallbackUnsupported","inputs":[]},{"type":"error","name":"InsufficientCollateralRemaining","inputs":[]},{"type":"error","name":"InsufficientRepayAmount","inputs":[]},{"type":"error","name":"InvalidAddress","inputs":[]},{"type":"error","name":"InvalidAmount","inputs":[]},{"type":"error","name":"InvalidAssetDecimals","inputs":[]},{"type":"error","name":"InvalidOraclePrice","inputs":[]},{"type":"error","name":"InvalidPositionType","inputs":[]},{"type":"error","name":"InvalidRouter","inputs":[{"name":"router","type":"address","internalType":"address"}]},{"type":"error","name":"NoZeroAmount","inputs":[]},{"type":"error","name":"NotConnectedAsset","inputs":[]},{"type":"error","name":"NotEnoughBalance","inputs":[]},{"type":"error","name":"NotWhitelistedAsset","inputs":[]},{"type":"error","name":"OracleCallFailed","inputs":[]},{"type":"error","name":"OwnableInvalidOwner","inputs":[{"name":"owner","type":"address","internalType":"address"}]},{"type":"error","name":"OwnableUnauthorizedAccount","inputs":[{"name":"account","type":"address","internalType":"address"}]},{"type":"error","name":"PriceFeedNotSet","inputs":[]},{"type":"error","name":"ReceiverAddressNotSet","inputs":[]},{"type":"error","name":"ReentrancyGuardReentrantCall","inputs":[]},{"type":"error","name":"SafeERC20FailedOperation","inputs":[{"name":"token","type":"address","internalType":"address"}]},{"type":"error","name":"StaleOraclePrice","inputs":[]},{"type":"error","name":"TransferFailed","inputs":[]},{"type":"error","name":"UserNotLiquidateable","inputs":[]}],"bytecode":{"object":"0x60e060405234801561000f575f5ffd5b5060405161374c38038061374c83398101604081905261002e9161018e565b80836001600160a01b03811661005e57604051631e4fbdf760e01b81525f60048201526024015b60405180910390fd5b61006781610124565b50600180556001600160a01b038116610095576040516335fdcccd60e21b81525f6004820152602401610055565b6001600160a01b03908116608052839081166100c45760405163e6c4247b60e01b815260040160405180910390fd5b826001600160a01b0381166100ec5760405163e6c4247b60e01b815260040160405180910390fd5b50506001600160a01b0391821660c052600d80546001600160a01b0319169190921617905550466001600160401b031660a0526101ce565b5f80546001600160a01b038381166001600160a01b0319831681178455604051919092169283917f8be0079c531659141344cd1fd0a4f28419497f9722a3daafe3b4186f6b6457e09190a35050565b80516001600160a01b0381168114610189575f5ffd5b919050565b5f5f5f606084860312156101a0575f5ffd5b6101a984610173565b92506101b760208501610173565b91506101c560408501610173565b90509250925092565b60805160a05160c05161350061024c5f395f81816104d1015281816109810152818161156d01528181611769015281816121660152818161220801526126f501525f81816103b8015281816108f10152818161114b0152818161161801528181611829015261286e01525f8181610586015261132d01526135005ff3fe608060405260043610610212575f3560e01c80638c7721c811610117578063c65826b71161009f578063dcce170e1161006e578063dcce170e14610686578063de403204146106a5578063e16e632c146106c9578063e4fbf404146106e8578063f2fde38b1461070757610219565b8063c65826b71461060a578063c7f4c1c014610629578063ce70232514610648578063d6d13ca41461066757610219565b8063acb70815116100e6578063acb7081514610565578063b0f479a114610578578063b16c8886146105aa578063b187323b146105c3578063b1884744146105f757610219565b80638c7721c8146104c05780638da5cb5b1461050b57806392f4aaa914610527578063a98a9f451461054657610219565b8063545d32cf1161019a578063715018a611610169578063715018a61461042157806376570ff21461043557806376e112861461046357806385572ffb1461048257806388264ace146104a157610219565b8063545d32cf146103a75780635745d27c146103da578063586d13b3146103f957806362965d8e1461040d57610219565b80631a2e374f116101e15780631a2e374f146102d85780631a4e5b611461030557806324e31a4a146103455780633394e6f4146103645780634b3fd1481461038857610219565b806301ffc9a71461023257806305cff50c14610266578063060336ec146102875780630c3118b41461029a57610219565b3661021957005b60405163d2347d9560e01b815260040160405180910390fd5b34801561023d575f5ffd5b5061025161024c366004612a93565b610726565b60405190151581526020015b60405180910390f35b348015610271575f5ffd5b50610285610280366004612ace565b61075c565b005b610285610295366004612afc565b610a50565b3480156102a5575f5ffd5b50600a546102c090600160a81b90046001600160401b031681565b6040516001600160401b03909116815260200161025d565b3480156102e3575f5ffd5b506102f76102f2366004612b49565b610beb565b60405190815260200161025d565b348015610310575f5ffd5b5061033361031f366004612b86565b60046020525f908152604090205460ff1681565b60405160ff909116815260200161025d565b348015610350575f5ffd5b506102f761035f366004612ba1565b610ccc565b34801561036f575f5ffd5b50610378610f10565b60405161025d9493929190612bfb565b348015610393575f5ffd5b506102856103a2366004612ace565b610fd7565b3480156103b2575f5ffd5b506102c07f000000000000000000000000000000000000000000000000000000000000000081565b3480156103e5575f5ffd5b506102856103f4366004612b49565b6111be565b348015610404575f5ffd5b50610333605081565b348015610418575f5ffd5b50610333604b81565b34801561042c575f5ffd5b50610285611287565b348015610440575f5ffd5b5061033361044f366004612b86565b60086020525f908152604090205460ff1681565b34801561046e575f5ffd5b5061028561047d366004612c3d565b61129a565b34801561048d575f5ffd5b5061028561049c366004612c69565b611322565b3480156104ac575f5ffd5b506102856104bb366004612b86565b611386565b3480156104cb575f5ffd5b506104f37f000000000000000000000000000000000000000000000000000000000000000081565b6040516001600160a01b03909116815260200161025d565b348015610516575f5ffd5b505f546001600160a01b03166104f3565b348015610532575f5ffd5b50610333610541366004612b86565b6113df565b348015610551575f5ffd5b50610285610560366004612b86565b611451565b610285610573366004612ace565b6114be565b348015610583575f5ffd5b507f00000000000000000000000000000000000000000000000000000000000000006104f3565b3480156105b5575f5ffd5b50600a546102519060ff1681565b3480156105ce575f5ffd5b506104f36105dd366004612b86565b60076020525f90815260409020546001600160a01b031681565b610285610605366004612ace565b6116b5565b348015610615575f5ffd5b506102f7610624366004612b49565b61189c565b348015610634575f5ffd5b506102f7610643366004612b49565b6119a5565b348015610653575f5ffd5b50610285610662366004612ba1565b611a8e565b348015610672575f5ffd5b50610333610681366004612b86565b611b04565b348015610691575f5ffd5b506102856106a0366004612cc3565b611b76565b3480156106b0575f5ffd5b50600a546104f39061010090046001600160a01b031681565b3480156106d4575f5ffd5b50600d546104f3906001600160a01b031681565b3480156106f3575f5ffd5b50610251610702366004612b86565b611bb8565b348015610712575f5ffd5b50610285610721366004612b86565b611bc4565b5f6001600160e01b031982166385572ffb60e01b148061075657506001600160e01b031982166301ffc9a760e01b145b92915050565b610764611bfe565b80610770600282611c28565b61078d57604051639216d96360e01b815260040160405180910390fd5b816001600160a01b0381166107b55760405163e6c4247b60e01b815260040160405180910390fd5b835f036107d55760405163e858080360e01b815260040160405180910390fd5b5f6107e1336001610ccc565b90505f6107ef336002610ccc565b90505f5f6107fc87611c4c565b6001600160a01b0389165f9081526004602052604081205492945090925060ff9091169061082b82600a612dd5565b610835858c612de3565b61083f9190612dfa565b90508086101561086157604051626ba92b60e91b815260040160405180910390fd5b606461086d8288612e19565b61087890604b612de3565b6108829190612dfa565b8511156108a257604051632c127ec560e21b815260040160405180910390fd5b335f9081526005602090815260408083206001600160a01b038d1684529091528120805490918c918391906108d8908490612e19565b90915550506040805160c0810182526001600160401b037f0000000000000000000000000000000000000000000000000000000000000000168152336020808301919091526001600160a01b038d81165f908152600783528481205490911683850152845460608401526080830181905260a08301819052925191929161096491849160019101612e2c565b604051602081830303815290604052905061097e81611e19565b507f00000000000000000000000000000000000000000000000000000000000000006001600160a01b03168c6001600160a01b031603610a24576040515f9033908f908381818185875af1925050503d805f81146109f7576040519150601f19603f3d011682016040523d82523d5f602084013e6109fc565b606091505b5050905080610a1e576040516312171d8360e31b815260040160405180910390fd5b50610a38565b610a386001600160a01b038d16338f612105565b5050505050505050505050610a4c60018055565b5050565b610a58611bfe565b81610a64600282611c28565b610a8157604051639216d96360e01b815260040160405180910390fd5b826001600160a01b038116610aa95760405163e6c4247b60e01b815260040160405180910390fd5b826001600160a01b038116610ad15760405163e6c4247b60e01b815260040160405180910390fd5b855f03610af15760405163e858080360e01b815260040160405180910390fd5b5f610afd856001610ccc565b90505f610b0b866002610ccc565b6001600160a01b0388165f9081526004602052604081205491925060ff90911690610b3589611c4c565b5090505f610b4483600a612e8f565b610b4e838d612de3565b610b589190612dfa565b90506064610b67866050612de3565b610b719190612dfa565b841015610b9157604051631d53efc360e31b815260040160405180910390fd5b83811015610bb25760405163e480bdff60e01b815260040160405180910390fd5b610bbd8b8b33612164565b610bca8b8b3384886121d2565b610bd5898b336122d4565b5050505050505050610be660018055565b505050565b5f836001600160a01b038116610c145760405163e6c4247b60e01b815260040160405180910390fd5b836001600160a01b038116610c3c5760405163e6c4247b60e01b815260040160405180910390fd5b8360ff16600103610c73576001600160a01b038086165f908152600560209081526040808320938a16835292905220549250610cc3565b8360ff16600203610caa576001600160a01b038086165f908152600660209081526040808320938a16835292905220549250610cc3565b6040516387d192c760e01b815260040160405180910390fd5b50509392505050565b5f5f610cd86002612304565b90505f805b8251811015610f07575f838281518110610cf957610cf9612e9a565b602002602001015190505f5f8760ff16600103610d545750506001600160a01b038088165f81815260056020908152604080832094861680845294825280832054938352600b82528083209483529390529190912054610dab565b8760ff16600203610da35750506001600160a01b038088165f81815260066020908152604080832094861680845294825280832054938352600c82528083209483529390529190912054610dab565b505050610eff565b80158015610db7575081155b15610dc457505050610eff565b6001600160a01b038381165f9081526009602052604090205416610dea57505050610eff565b5f5f610df585611c4c565b6001600160a01b0387165f9081526004602052604081205492945090925060ff90911690808615610e4257610e2b83600a612e8f565b610e358689612de3565b610e3f9190612dfa565b91505b8515610ee0576001600160a01b0388165f9081526008602052604081205460ff169084821115610e9257610e768583612e19565b610e8190600a612e8f565b610e8b9089612dfa565b9050610ebc565b81851115610eb957610ea48286612e19565b610eaf90600a612e8f565b610e8b9089612de3565b50865b610ec785600a612e8f565b610ed18883612de3565b610edb9190612dfa565b925050505b610eea8183612eae565b610ef4908b612eae565b995050505050505050505b600101610cdd565b50949350505050565b600e54600f54601080545f93849384936060936001600160401b03831692600160401b90046001600160a01b031691908190610f4b90612ec1565b80601f0160208091040260200160405190810160405280929190818152602001828054610f7790612ec1565b8015610fc25780601f10610f9957610100808354040283529160200191610fc2565b820191905f5260205f20905b815481529060010190602001808311610fa557829003601f168201915b50505050509050935093509350935090919293565b610fdf611bfe565b80610feb600282611c28565b61100857604051639216d96360e01b815260040160405180910390fd5b816001600160a01b0381166110305760405163e6c4247b60e01b815260040160405180910390fd5b835f036110505760405163e858080360e01b815260040160405180910390fd5b5f61105c336001610ccc565b90505f61106a336002610ccc565b6001600160a01b0386165f9081526004602052604081205491925060ff909116908061109588611c4c565b90925090505f6110a684600a612e8f565b6110b0848c612de3565b6110ba9190612dfa565b905060646110c987604b612de3565b6110d39190612dfa565b6110dd8683612eae565b11156110fc57604051633c8471b760e11b815260040160405180910390fd5b335f9081526006602090815260408083206001600160a01b038d1684529091528120805490918c91839190611132908490612eae565b90915550506040805160c0810182526001600160401b037f0000000000000000000000000000000000000000000000000000000000000000168152336020808301919091526001600160a01b038d81165f908152600783528481205490911683850152845460608401526080830181905260a08301819052925191929161096491849160029101612e2c565b6111c6612310565b826001600160a01b0381166111ee5760405163e6c4247b60e01b815260040160405180910390fd5b826001600160a01b0381166112165760405163e6c4247b60e01b815260040160405180910390fd5b8260ff165f036112395760405163e236476560e01b815260040160405180910390fd5b50506001600160a01b039283165f90815260076020908152604080832080546001600160a01b031916959096169490941790945560089093529120805460ff191660ff909216919091179055565b61128f612310565b6112985f61233c565b565b6112a2612310565b806001600160a01b0381166112ca5760405163e6c4247b60e01b815260040160405180910390fd5b826112d6600282611c28565b6112f357604051639216d96360e01b815260040160405180910390fd5b50506001600160a01b039182165f90815260096020526040902080546001600160a01b03191691909216179055565b336001600160a01b037f00000000000000000000000000000000000000000000000000000000000000001614611372576040516335fdcccd60e21b81523360048201526024015b60405180910390fd5b61138361137e826130c1565b61238b565b50565b61138e612310565b806001600160a01b0381166113b65760405163e6c4247b60e01b815260040160405180910390fd5b50600a80546001600160a01b0390921661010002610100600160a81b0319909216919091179055565b5f816113ec600282611c28565b61140957604051639216d96360e01b815260040160405180910390fd5b826001600160a01b0381166114315760405163e6c4247b60e01b815260040160405180910390fd5b5050506001600160a01b03165f9081526004602052604090205460ff1690565b611459612310565b806001600160a01b0381166114815760405163e6c4247b60e01b815260040160405180910390fd5b61148c600283611c28565b15610a4c5761149c6002836125b3565b50506001600160a01b03165f908152600460205260409020805460ff19169055565b6114c6611bfe565b806114d2600282611c28565b6114ef57604051639216d96360e01b815260040160405180910390fd5b816001600160a01b0381166115175760405163e6c4247b60e01b815260040160405180910390fd5b835f036115375760405163e858080360e01b815260040160405180910390fd5b335f9081526006602090815260408083206001600160a01b03871684529091529020548085116115675784611569565b805b94507f00000000000000000000000000000000000000000000000000000000000000006001600160a01b0316846001600160a01b0316036115b4578434146115af575f5ffd5b6115c9565b6115c96001600160a01b0385163330886125c7565b335f9081526006602090815260408083206001600160a01b038816845290915281208054909187918391906115ff908490612e19565b90915550506040805160c0810182526001600160401b037f0000000000000000000000000000000000000000000000000000000000000000168152336020808301919091526001600160a01b038881165f908152600783528481205490911683850152845460608401526080830181905260a08301819052925191929161168b91849160029101612e2c565b60405160208183030381529060405290506116a581611e19565b50505050505050610a4c60018055565b6116bd611bfe565b806116c9600282611c28565b6116e657604051639216d96360e01b815260040160405180910390fd5b816001600160a01b03811661170e5760405163e6c4247b60e01b815260040160405180910390fd5b6001600160a01b038084165f9081526007602052604090205484911661174757604051630c974efb60e01b815260040160405180910390fd5b845f036117675760405163e858080360e01b815260040160405180910390fd5b7f00000000000000000000000000000000000000000000000000000000000000006001600160a01b0316846001600160a01b0316036117c5578434146117c05760405163162908e360e11b815260040160405180910390fd5b6117da565b6117da6001600160a01b0385163330886125c7565b335f9081526005602090815260408083206001600160a01b03881684529091528120805490918791839190611810908490612eae565b90915550506040805160c0810182526001600160401b037f0000000000000000000000000000000000000000000000000000000000000000168152336020808301919091526001600160a01b038881165f908152600783528481205490911683850152845460608401526080830181905260a08301819052925191929161168b91849160019101612e2c565b5f836118a9600282611c28565b6118c657604051639216d96360e01b815260040160405180910390fd5b846001600160a01b0381166118ee5760405163e6c4247b60e01b815260040160405180910390fd5b846001600160a01b0381166119165760405163e6c4247b60e01b815260040160405180910390fd5b5f1960ff86160161195a576001600160a01b038087165f908152600b602090815260408083208b85168452600783528184205490941683529290522054935061199b565b60011960ff861601610caa576001600160a01b038087165f908152600c602090815260408083208b8516845260078352818420549094168352929052205493505b5050509392505050565b5f836119b2600282611c28565b6119cf57604051639216d96360e01b815260040160405180910390fd5b846001600160a01b0381166119f75760405163e6c4247b60e01b815260040160405180910390fd5b846001600160a01b038116611a1f5760405163e6c4247b60e01b815260040160405180910390fd5b5f1960ff861601611a56576001600160a01b038087165f908152600560209081526040808320938b1683529290522054935061199b565b60011960ff861601610caa576001600160a01b038087165f908152600660209081526040808320938b1683529290522054935061199b565b611a96612310565b816001600160a01b038116611abe5760405163e6c4247b60e01b815260040160405180910390fd5b611ac9600284611c28565b610be657611ad8600284612606565b506001600160a01b0383165f908152600460205260409020805460ff841660ff19909116179055505050565b5f81611b11600282611c28565b611b2e57604051639216d96360e01b815260040160405180910390fd5b826001600160a01b038116611b565760405163e6c4247b60e01b815260040160405180910390fd5b5050506001600160a01b03165f9081526008602052604090205460ff1690565b611b7e612310565b600a805460ff196001600160401b03909316600160a81b029290921660ff67ffffffffffffffff60a81b0119909216919091176001179055565b5f610756600283611c28565b611bcc612310565b6001600160a01b038116611bf557604051631e4fbdf760e01b81525f6004820152602401611369565b6113838161233c565b600260015403611c2157604051633ee5aeb560e01b815260040160405180910390fd5b6002600155565b6001600160a01b0381165f90815260018301602052604081205415155b9392505050565b6001600160a01b038181165f908152600960205260408120549091829116611c8757604051637e68a04560e01b815260040160405180910390fd5b6001600160a01b038084165f9081526009602090815260409182902054825163313ce56760e01b8152925193169263313ce5679260048082019392918290030181865afa158015611cda573d5f5f3e3d5ffd5b505050506040513d601f19601f82011682018060405250810190611cfe919061317d565b6001600160a01b038085165f9081526009602052604090819020548151633fabe5a360e21b815291519394509091169163feaf968c9160048082019260a0929091908290030181865afa925050508015611d75575060408051601f3d908101601f19168201909252611d72918101906131b1565b60015b611dc1573d808015611da2576040519150601f19603f3d011682016040523d82523d5f602084013e611da7565b606091505b50604051638390524960e01b815260040160405180910390fd5b42611dce83610e10612eae565b1015611ded57604051631510fe5b60e31b815260040160405180910390fd5b8396505f8713611e0f5760405162fc7cad60e51b815260040160405180910390fd5b5050505050915091565b600a545f9061010090046001600160a01b0316611e49576040516313834ca560e01b815260040160405180910390fd5b600a5460ff16611e6c5760405163459a2bcf60e01b815260040160405180910390fd5b6040805160a081018252600a5461010090046001600160a01b031660c0808301919091528251808303909101815260e0820183528152602080820185905282515f8082529181018452909282019083611ee6565b604080518082019091525f8082526020820152815260200190600190039081611ec05790505b5081526020015f6001600160a01b03168152602001611f63604051806040016040528062030d408152602001600115158152506040805182516024820152602092830151151560448083019190915282518083039091018152606490910190915290810180516001600160e01b0316630181dcf160e41b17905290565b9052600d54600a546040516320487ded60e01b81529293505f926001600160a01b03909216916320487ded91611faf91600160a81b9091046001600160401b03169086906004016131ff565b602060405180830381865afa158015611fca573d5f5f3e3d5ffd5b505050506040513d601f19601f82011682018060405250810190611fee91906132dd565b9050478111156120115760405163569d45cf60e11b815260040160405180910390fd5b600d54600a546040516396f4e9f960e01b81526001600160a01b03909216916396f4e9f991849161205791600160a81b90046001600160401b03169087906004016131ff565b60206040518083038185885af1158015612073573d5f5f3e3d5ffd5b50505050506040513d601f19601f8201168201806040525081019061209891906132dd565b600a546040805161010083046001600160a01b031681525f6020820152908101849052919450600160a81b90046001600160401b03169084907f9fb548811cfe022ba6400d8533a80d63fbc228e596f93603959dc47b1886af549060600160405180910390a35050919050565b6040516001600160a01b03838116602483015260448201839052610be691859182169063a9059cbb906064015b604051602081830303815290604052915060e01b6020820180516001600160e01b03838183161783525050505061261a565b7f00000000000000000000000000000000000000000000000000000000000000006001600160a01b0316826001600160a01b0316036121bd57823414610be65760405163162908e360e11b815260040160405180910390fd5b610be66001600160a01b0383168230866125c7565b5f818311156121e8576121e58284612e19565b90505b80156122cc575f836121fa8389612de3565b6122049190612dfa565b90507f00000000000000000000000000000000000000000000000000000000000000006001600160a01b0316866001600160a01b031614612258576122536001600160a01b0387168683612105565b6122ca565b5f856001600160a01b0316826040515f6040518083038185875af1925050503d805f81146122a1576040519150601f19603f3d011682016040523d82523d5f602084013e6122a6565b606091505b50509050806122c8576040516312171d8360e31b815260040160405180910390fd5b505b505b505050505050565b6122de8382612686565b6001600160a01b038083165f90815260076020526040902054610be6911680858461285a565b60605f611c458361290b565b5f546001600160a01b031633146112985760405163118cdaa760e01b8152336004820152602401611369565b5f80546001600160a01b038381166001600160a01b0319831681178455604051919092169283917f8be0079c531659141344cd1fd0a4f28419497f9722a3daafe3b4186f6b6457e09190a35050565b5f5f82606001518060200190518101906123a591906132f4565b915091506123c182604001516002611c2890919063ffffffff16565b6123de57604051639216d96360e01b815260040160405180910390fd5b60a08201516001600160a01b031615801590612408575060a082015161240690600290611c28565b155b1561242657604051639216d96360e01b815260040160405180910390fd5b5f1960ff8216016124695760608201516020808401516001600160a01b039081165f908152600b83526040808220818801519093168252919092529020556124cb565b60011960ff8216016124ad5760608201516020808401516001600160a01b039081165f908152600c83526040808220818801519093168252919092529020556124cb565b60021960ff821601610caa576124cb82602001518360800151612686565b8251600e55602080840151600f8054858401516001600160a01b0316600160401b026001600160e01b03199091166001600160401b039093169290921791909117905560408051808201909152600b81526a4e4557204d45535341474560a81b9181019190915260109061253f90826133e1565b5082602001516001600160401b0316835f01517fc961d0c2c015e6d8acd4258de0fd4daa7a05039ed1c66e0e9c84a5ab1fc4907b856040015180602001905181019061258b919061349b565b604080516001600160a01b03909216825260ff861660208301520160405180910390a3505050565b5f611c45836001600160a01b038416612964565b6040516001600160a01b0384811660248301528381166044830152606482018390526126009186918216906323b872dd90608401612132565b50505050565b5f611c45836001600160a01b038416612a47565b5f5f60205f8451602086015f885af180612639576040513d5f823e3d81fd5b50505f513d9150811561265057806001141561265d565b6001600160a01b0384163b155b1561260057604051635274afe760e01b81526001600160a01b0385166004820152602401611369565b5f6126916002612304565b90505f5b81518110156127c2575f8282815181106126b1576126b1612e9a565b6020908102919091018101516001600160a01b038088165f908152600584526040808220928416825291909352822054909250908190036126f35750506127ba565b7f00000000000000000000000000000000000000000000000000000000000000006001600160a01b0316826001600160a01b031614612745576127406001600160a01b0383168683612105565b6127b7565b5f856001600160a01b0316826040515f6040518083038185875af1925050503d805f811461278e576040519150601f19603f3d011682016040523d82523d5f602084013e612793565b606091505b50509050806127b5576040516312171d8360e31b815260040160405180910390fd5b505b50505b600101612695565b505f5b8151811015612600575f8282815181106127e1576127e1612e9a565b6020908102919091018101516001600160a01b038088165f81815260058552604080822093909416808252928552838120819055818152600685528381208382528552838120819055818152600b85528381208382528552838120819055908152600c84528281209181529252812055506001016127c5565b6040805160c0810182526001600160401b037f00000000000000000000000000000000000000000000000000000000000000001681526001600160a01b038085166020808401919091528782165f908152600780835285822054841685870152606085018290528684166080860152888416825282528481205490921660a08401529251919290916128f191849160039101612e2c565b60405160208183030381529060405290506122ca81611e19565b6060815f0180548060200260200160405190810160405280929190818152602001828054801561295857602002820191905f5260205f20905b815481526020019060010190808311612944575b50505050509050919050565b5f8181526001830160205260408120548015612a3e575f612986600183612e19565b85549091505f9061299990600190612e19565b90508082146129f8575f865f0182815481106129b7576129b7612e9a565b905f5260205f200154905080875f0184815481106129d7576129d7612e9a565b5f918252602080832090910192909255918252600188019052604090208390555b8554869080612a0957612a096134b6565b600190038181905f5260205f20015f90559055856001015f8681526020019081526020015f205f905560019350505050610756565b5f915050610756565b5f818152600183016020526040812054612a8c57508154600181810184555f848152602080822090930184905584548482528286019093526040902091909155610756565b505f610756565b5f60208284031215612aa3575f5ffd5b81356001600160e01b031981168114611c45575f5ffd5b6001600160a01b0381168114611383575f5ffd5b5f5f60408385031215612adf575f5ffd5b823591506020830135612af181612aba565b809150509250929050565b5f5f5f60608486031215612b0e575f5ffd5b833592506020840135612b2081612aba565b91506040840135612b3081612aba565b809150509250925092565b60ff81168114611383575f5ffd5b5f5f5f60608486031215612b5b575f5ffd5b8335612b6681612aba565b92506020840135612b7681612aba565b91506040840135612b3081612b3b565b5f60208284031215612b96575f5ffd5b8135611c4581612aba565b5f5f60408385031215612bb2575f5ffd5b8235612bbd81612aba565b91506020830135612af181612b3b565b5f81518084528060208401602086015e5f602082860101526020601f19601f83011685010191505092915050565b8481526001600160401b03841660208201526001600160a01b03831660408201526080606082018190525f90612c3390830184612bcd565b9695505050505050565b5f5f60408385031215612c4e575f5ffd5b8235612c5981612aba565b91506020830135612af181612aba565b5f60208284031215612c79575f5ffd5b81356001600160401b03811115612c8e575f5ffd5b820160a08185031215611c45575f5ffd5b6001600160401b0381168114611383575f5ffd5b8035612cbe81612c9f565b919050565b5f60208284031215612cd3575f5ffd5b8135611c4581612c9f565b634e487b7160e01b5f52601160045260245ffd5b6001815b6001841115612d2d57808504811115612d1157612d11612cde565b6001841615612d1f57908102905b60019390931c928002612cf6565b935093915050565b5f82612d4357506001610756565b81612d4f57505f610756565b8160018114612d655760028114612d6f57612d8b565b6001915050610756565b60ff841115612d8057612d80612cde565b50506001821b610756565b5060208310610133831016604e8410600b8410161715612dae575081810a610756565b612dba5f198484612cf2565b805f1904821115612dcd57612dcd612cde565b029392505050565b5f611c4560ff841683612d35565b808202811582820484141761075657610756612cde565b5f82612e1457634e487b7160e01b5f52601260045260245ffd5b500490565b8181038181111561075657610756612cde565b82516001600160401b031681526020808401516001600160a01b03908116918301919091526040808501518216908301526060808501519083015260808085015182169083015260a093840151169281019290925260ff1660c082015260e00190565b5f611c458383612d35565b634e487b7160e01b5f52603260045260245ffd5b8082018082111561075657610756612cde565b600181811c90821680612ed557607f821691505b602082108103612ef357634e487b7160e01b5f52602260045260245ffd5b50919050565b634e487b7160e01b5f52604160045260245ffd5b604080519081016001600160401b0381118282101715612f2f57612f2f612ef9565b60405290565b60405160a081016001600160401b0381118282101715612f2f57612f2f612ef9565b60405160c081016001600160401b0381118282101715612f2f57612f2f612ef9565b604051601f8201601f191681016001600160401b0381118282101715612fa157612fa1612ef9565b604052919050565b5f82601f830112612fb8575f5ffd5b81356001600160401b03811115612fd157612fd1612ef9565b612fe4601f8201601f1916602001612f79565b818152846020838601011115612ff8575f5ffd5b816020850160208301375f918101602001919091529392505050565b5f82601f830112613023575f5ffd5b81356001600160401b0381111561303c5761303c612ef9565b61304b60208260051b01612f79565b8082825260208201915060208360061b86010192508583111561306c575f5ffd5b602085015b838110156130b75760408188031215613088575f5ffd5b613090612f0d565b813561309b81612aba565b8152602082810135818301529084529290920191604001613071565b5095945050505050565b5f60a082360312156130d1575f5ffd5b6130d9612f35565b823581526130e960208401612cb3565b602082015260408301356001600160401b03811115613106575f5ffd5b61311236828601612fa9565b60408301525060608301356001600160401b03811115613130575f5ffd5b61313c36828601612fa9565b60608301525060808301356001600160401b0381111561315a575f5ffd5b61316636828601613014565b60808301525092915050565b8051612cbe81612b3b565b5f6020828403121561318d575f5ffd5b8151611c4581612b3b565b805169ffffffffffffffffffff81168114612cbe575f5ffd5b5f5f5f5f5f60a086880312156131c5575f5ffd5b6131ce86613198565b602087015160408801516060890151929750909550935091506131f360808701613198565b90509295509295909350565b6001600160401b0383168152604060208201525f825160a0604084015261322960e0840182612bcd565b90506020840151603f198483030160608501526132468282612bcd565b6040860151858203603f190160808701528051808352602091820194505f93509101905b808310156132a157835180516001600160a01b0316835260209081015181840152909301926001929092019160409091019061326a565b5060608601516001600160a01b031660a08601526080860151858203603f190160c087015292506132d28184612bcd565b979650505050505050565b5f602082840312156132ed575f5ffd5b5051919050565b5f5f82840360e0811215613306575f5ffd5b60c0811215613313575f5ffd5b5061331c612f57565b835161332781612c9f565b8152602084015161333781612aba565b6020820152604084015161334a81612aba565b604082015260608481015190820152608084015161336781612aba565b608082015260a084015161337a81612aba565b60a0820152915061338d60c08401613172565b90509250929050565b601f821115610be657805f5260205f20601f840160051c810160208510156133bb5750805b601f840160051c820191505b818110156133da575f81556001016133c7565b5050505050565b81516001600160401b038111156133fa576133fa612ef9565b61340e816134088454612ec1565b84613396565b6020601f821160018114613440575f83156134295750848201515b5f19600385901b1c1916600184901b1784556133da565b5f84815260208120601f198516915b8281101561346f578785015182556020948501946001909201910161344f565b508482101561348c57868401515f19600387901b60f8161c191681555b50505050600190811b01905550565b5f602082840312156134ab575f5ffd5b8151611c4581612aba565b634e487b7160e01b5f52603160045260245ffdfea2646970667358221220acbf240e00ca8b27154101cc309796b4fcee6e58805e7f339c36300b62b5327564736f6c634300081d0033","linkReferences":{}},"methodIdentifiers":{"LIQ()":"586d13b3","LTV()":"62965d8e","borrow(uint256,address)":"4b3fd148","ccipReceive((bytes32,uint64,bytes,bytes,(address,uint256)[]))":"85572ffb","getAssetDecimalsOnDest(address)":"d6d13ca4","getAssetDecimalsOnSource(address)":"92f4aaa9","getLatestMessageDetails()":"3394e6f4","getRouter()":"b0f479a1","getTotalUSDValueOfUserByType(address,uint8)":"24e31a4a","getUserPositionForAssetByType(address,address,uint8)":"1a2e374f","getUserPositionForAssetByTypeOnDest(address,address,uint8)":"c65826b7","getUserPositionForAssetByTypeOnSource(address,address,uint8)":"c7f4c1c0","i_nativeAssetAddress()":"8c7721c8","i_sourceChainID()":"545d32cf","isAssetWhitelisted(address)":"e4fbf404","lend(uint256,address)":"b1884744","liquidate(uint256,address,address)":"060336ec","listAsset(address,uint8)":"ce702325","owner()":"8da5cb5b","renounceOwnership()":"715018a6","repay(uint256,address)":"acb70815","s_assetDecimals(address)":"1a4e5b61","s_assetDecimalsOnConnectedChain(address)":"76570ff2","s_assetToAssetOnConnectedChain(address)":"b187323b","s_connectedChainID()":"0c3118b4","s_isConnectedChainSet()":"b16c8886","s_receiverOnConnectedChain()":"de403204","s_router()":"e16e632c","setAssetToAssetOnConnectedChain(address,address,uint8)":"5745d27c","setConnectedChainID(uint64)":"dcce170e","setPriceFeed(address,address)":"76e11286","setReceiverOnConnectedChain(address)":"88264ace","supportsInterface(bytes4)":"01ffc9a7","transferOwnership(address)":"f2fde38b","unlend(uint256,address)":"05cff50c","unlistAsset(address)":"a98a9f45"},"id":38}